S00B00004843312E737265635D
S214400000D02A002019074000170740001707400075
S2144000101707400017074000170740000000000081
S214400020000000000000000000000000170740002D
S2144000301707400000000000170740001707400061
S21440004017074000170740001707400017074000F3
S21440005017074000170740001707400017074000E3
S21440006017074000170740001707400025054000C7
S2144000703905400017074000B50640001707400006
S21440008017074000170740001707400017074000B3
S21440009017074000170740001707400017074000A3
S2144000A01707400017074000170740001707400093
S2144000B01707400017074000170740001707400083
S2144000C01707400017074000170740001707400073
S2144000D010B5054C237833B9044B13B10448AFF33D
S2144000E000800123237010BD2C0900200000000072
S2144000F0401540000C4B43B10C4810B50C49AFF3CB
S21440010000800C48036823B910BD0A48036833B919
S2144001107047094B002BF7D0BDE810401847064BF8
S214400120002BF5D0184700BF0000000040154000E7
S21440013030090020401540000000000010B50E4871
S2144001400E4B98473E2100200D4B98470D4CA0473C
S2144001500028FCD00C4B98470C4A0D4B9A620D4C2D
S214400160A0470028FCD010200B4B98470B4B9847D5
S2144001700148024B984710BD0090D003A1000020D4
S214400180B10540000506400015064000033F1F200D
S21440019000040E40250640004D054000B1074000D3
S2144001A0002A3FD02DE9F04F83B006460C469346D2
S2144001B08B441D4F1D4DDFF880A00DE0214638468C
S2144001C0A8470028FAD110E021465046A847002804
S2144001D0FAD101345C4521D000230193BE42EDD0D4
S2144001E05645F1D0124B9E420DD0124B9E42F0D156
S2144001F09946DFF8488001A94846C0470028FAD10A
S214400200019B2370E5E79946DFF8308001A9484610
S214400210C0470028FAD1019B2370DAE7002003B0DC
S214400220BDE8F08F0020704700060E40890640006B
S214400230004002400080024000080E409B064000FE
S214400240016370474163704721F00061B1F1405F40
S2144002500CBF836BC36B134214BF01200020704752
S2144002604264B1F1C05F39D013D8B1F1006F25D0E8
S214400270B1F1805F0AD1036F13430367436F416F49
S2144002800B4023EA02034367426070470029FBD1D4
S2144002907047B1F1205F20D009D8B1F1005FF3D1AB
S2144002A0036F13430367436F13434367ECE7B1F1B0
S2144002B0405F12D0B1F1605F0FD0E5E710B4016F38
S2144002C0046FD34321401C4619400167436F416F7A
S2144002D00B4023404367426010BC7047036F016F7A
S2144002E00B4023EA02030367436F13434367CBE79E
S2144002F0416412F0010F14BF4166016612F00A0F06
S21440030014BF0162416212F0020F07D112F0080FCB
S21440031018BFC0F88410416101607047C0F8801073
S214400320F9E710B4019C416444B9016643B10165E4
S21440033042B941630161016010BC70474166F5E710
S2144003404165F5E70163F5E770B582B005461646A8
S2144003501C46B1F1005F14D00AD9B1F1405F22D0FB
S214400360B1F1605F1FD0B1F1205F16D0002012E0DF
S214400370B1F1805F05D0B1F1C05F02D0B1F1006F3E
S214400380F4D132462846104B984714F0010F14BF5C
S2144003906E662E66012002B070BD1A4631460B4B83
S2144003A098470120F7E704F001030093C4F3800365
S2144003B0B1F1605F14BF0022012231462846044C4A
S2144003C0A0470120E7E700BF61024000F10240007D
S2144003D02303400012F0100F10D0C0F8B01012F0F7
S2144003E0200F14BFC0F8D410C0F8D01012F0400F41
S2144003F014BFC0F8C010C0F8C4107047C0F8B4109E
S214400400704701647047C06C7047806C7047430902
S21440041003F5001303F207735B02DB6B00F01F006B
S21440042023FA00F000F001007047430903F500137B
S21440043003F207735B02996B00F01F0201209040A5
S214400440014214BF58631863704700002DE9F84313
S21440045081460F46124B984705464846114B9847EB
S214400460054013D0104C04F1600603E0B4420DD0B2
S21440047010345DB12068B842F8D161682942F5D0A1
S214400480E3689847636825EA0305EFE7074B1B6870
S21440049023B1074B1B680BB148469847BDE8F88325
S2144004A0070440000B04400048090020A40A00202E
S2144004B0BC090020F8B5184C2668062E29D84FF0FF
S2144004C0000C6446154F04E00134E4B2A446A6424C
S2144004D009D3A64625017D598D42F5D107EB041573
S2144004E06D689542F0D10D4D4FEA0E1E05EB0E0499
S2144004F045F80E106260A3600699E16001366645D5
S21440050004BF05490E6011461A46054B9847002021
S214400510F8BD0120F8BD00BFB809002048090020FA
S214400520D503400008B50B210148024B984708BD4B
S214400530000E0E404D04400008B50C210148024B09
S214400540984708BD00100E404D044000174A136BF4
S21440055023F0700318431063936E13F0080F0AD10C
S2144005604FF4006311498A6E12F0080F03D1013B25
S214400570F9D1012070470D4A136B23F0030343F073
S21440058002031363936E13F0080F0AD14FF400630F
S21440059006498A6E12F0080F05D1013BF9D10120B9
S2144005A07047002070470020704700BF00040E4090
S2144005B0C8B9114A136A090289B223F45C1323F0BE
S2144005C0030343F45C1343F001030B431362936E3F
S2144005D013F0010FFBD0084A136A43F09B7343F4B1
S2144005E080331362704704490B6A044A1A40044B2E
S2144005F013430B62704700BF00040E40FCFFC8FE6A
S21440060002003701024B986E00F48030704700BFFE
S21440061000040E404FF00052014B9A62704700BFF4
S21440062000040E40024B986E00F00200704700BF78
S21440063000040E4022281ED81F280CD8114B9A6959
S21440064001238340934318D0012303FA00F00D4B57
S21440065018610020704720380A4BD3F80821012340
S214400660834093430BD0012303FA00F0054BC3F8B5
S214400670000100207047012070470020704700208E
S214400680704700BF00040E40436913F0010F1DBFC2
S21440069083690B70002001207047436913F0010FF7
S2144006A005D08369C3F308030B6000207047012020
S2144006B07047000000B583B001220DF107011048D5
S2144006C0104B984772B6BFF35F8F00220E4B1A70DE
S2144006D00E4B1B789DF807100D4AD1549B2B0BD020
S2144006E001330A4A13700122074B1A70BFF35F8F1B
S2144006F062B603B05DF804FB0022044B1A70F2E7C2
S21440070000400240A1014000E40000205C0A0020B6
S214400710C00900207047FEE708B51C4B1C4A9A42A9
S21440072010D01C4B194A9A420CD2013B9B1A23F01C
S214400730030304331344164951F8040B42F8040BE0
S2144007409A42F9D1144B154A9A420AD2013B9B1A57
S21440075023F0030304331344002142F8041B93425E
S214400760FBD10F4B23F0604222F07F020D498A6096
S21440077003F16043B3F5804F03D28B6843F00053D8
S2144007808B60094B9847094B9847FEE700000020CE
S214400790401540002C090020D00A00202C090020DB
S2144007A00000400000ED00E0AD0B4000910B400023
S2144007B03C4B1B6B03F00303032B0ED8DFE803F020
S2144007C0021C3838384B5B6913F0800F14BF4FF467
S2144007D000424FF4FA42354B1A60324B1B6B03F023
S2144007E07003702B55D02F4B1A6B3049C2F3021250
S2144007F00B68D3400B6070472A4B1B6A13F0807F10
S21440080003D02B4A294B1A60E7E72A4A274B1A603F
S214400810244B1B6A03F07003102B05D0202BDCD131
S214400820234A224B1A60D8E7234A204B1A60D4E763
S2144008301C4B1B6A13F0807F18D01D4A1B4B1A6056
S214400840184B1B6B03F00303022B164A07BF916A33
S214400850926AD16AD26A1548C1F30A41036801FB1D
S2144008600333D2B2B3FBF2F30360B6E7114A0F4B41
S2144008701A600C4B1B6A03F07003102B05D0202B1C
S214400880DED10B4A094B1A60DAE70B4A074B1A606F
S214400890D6E7064A13680949A1FB03135B081360B1
S2144008A0704700BF00040E4010140E40E8000020C1
S2144008B0001BB70000093D0000127A00ABAAAAAAA6
S2144008C00A4B1B6853B1094B1B681A1808499142DA
S2144008D008DB1046054A106018467047054A034B29
S2144008E01A60F0E74FF0FF30704700BF600A002004
S2144008F0FC3F0020D02A00200C2800D0704711F47E
S214400900205FFBD0F8B5674D4FF400624FF02051A2
S2144009102846654CA04706464FF400524FF02051FB
S2144009202846A047002814BF022400242E205F4BF0
S2144009309847003018BF01205D4B18701B788BB16C
S2144009405C4B1B7833B95C4B1B68002BB8BF5B42D3
S214400950282B3FDC0022574B1A70584B1B78DBB2D3
S214400960574A1370534B1B78002B62D1002E18BF8A
S21440097044F00104534B1B78DBB29C4259D0514B98
S2144009801B78DBB2012B2CD04E4B1B78DBB2032BF3
S2144009902AD04C4B1B78DBB2022B28D0494B1B7815
S2144009A00BB9012C25D0474B1B78DBB2012B4AD024
S2144009B0444B1B780BB9022C47D0424B1B78DBB21A
S2144009C0022B56D03F4B1B78DBB2032B24D1012C95
S2144009D022D13AE008203C4B98470022364B1A601A
S2144009E0B8E7032CD0D104E0022CD2D101E0002C91
S2144009F0D4D12F4B1B78EBB92A4D02212846334BD6
S214400A00984701212846324B984701222B4B1A70B3
S214400A10294A136801331360284B1B78284A1278FA
S214400A20DBB2934203D0224B1B78002B2DD0254BB4
S214400A301C70F8BD1B4E02213046254DA8470121AB
S214400A403046A847E1E7002CB2D1194B1B789BB93A
S214400A50144D012128461D4B9847022128461C4B21
S214400A6098470022154B1A70134A1368013B1360CF
S214400A70D2E7032CA6D1E8E70A4E02213046144DB1
S214400A80A84701213046A847EBE70127094B1F70CE
S214400A90044E022130460D4DA84739463046A847F9
S214400AA0C5E700BF00100E40490240000F0440005A
S214400AB0640A0020650A00206C0A0020680A0020AC
S214400AC0660A0020670A00202B04400041024000CE
S214400AD04502400030B583B00C20244B9847244C48
S214400AE0002301224FF040512046224DA8470023C4
S214400AF002224FF040512046A84700234FF4807210
S214400B004FF040511C48A84700234FF400624FF076
S214400B1020512046A84700234FF400524FF0205162
S214400B202046A84740224FF400612046134DA84770
S214400B3040224FF400512046A84740224FF48041BF
S214400B402046A8470E4B009340234FF4D0420C213A
S214400B5020460C4DA8474FF4D04120460A4B9847B4
S214400B604FF48052094B1A6003B030BD3506400042
S214400B7000100E4049034000000E0E40D5034000D2
S214400B80F9084000B50440000304400000E100E0DE
S214400B9008B5034B9847034B9847034B9847FEE7E7
S214400BA03D01400015074000D50A400070B50F4E85
S214400BB00F4D761BB61018BF002405D0013455F8EB
S214400BC0043B9847A642F9D10A4E0B4D00F0A6FCCE
S214400BD0761BB61018BF002406D0013455F8043BE7
S214400BE09847A642F9D170BD70BD00BF2815400099
S214400BF0281540003015400028154000024B13B120
S214400C00024800F005B87047000000001D0C400088
S214400C10002301461A46184600F01CBC38B50A4C5C
S214400C200A4D641BA4100AD004F18043013B05EB37
S214400C308305013C55F804399847002CF9D1BDE8A6
S214400C40384000F075BC00BF401540003C154000E1
S214400C50F8B50C46234F064600F0DEFBBB68C4F5ED
S214400C607E615D680F3125F00305294421F47F61DC
S214400C7021F00F01A1F58054B4F5805F07DB002119
S214400C80304600F0D5FBBB682B44984204D0304633
S214400C9000F0C8FB0020F8BD6142304600F0C8FBBB
S214400CA001300DD0104BBA6819682D1B45F0010570
S214400CB03046091B5560196000F0B4FB0120F8BDB2
S214400CC00021304600F0B4FBBA68831A0F2BDEDDF5
S214400CD0064C0549246843F00103001B5360086036
S214400CE0D5E700BF1C050020700A0020240900201C
S214400CF0002944D02DE9F0410D46804600F08CFB9B
S214400D0055F8047C6949A5F1080427F00103E21868
S214400D108E685068B24220F003005ED0FE075060F6
S214400D200BD455F8087C01F1080EE41BA5683B443B
S214400D3075456DD0E768EF60BD6015186D68ED07C6
S214400D403ED543F001026260E350B3F5007F17D210
S214400D500122DB0898104D68134451F833708240E6
S214400D6001EBC3002A430838E060A7604A6041F8B8
S214400D703340FC604046BDE8F04100F053BB70474E
S214400D805A0A042A52D89A0902F13907FF0002F19A
S214400D903805C819CA59083890424FD0516821F0D2
S214400DA003018B4232D292689042F7D1C368A0606A
S214400DB0E3609C60C4604046BDE8F04100F032BB52
S214400DC095683B4F0344BD4240D0D06843F0010293
S214400DD0E86085606260E350B7E7FF07034407D4E6
S214400DE055F8085C641BE268A0682B44C2609060BB
S214400DF0304A43F001001268606093428C60B9D379
S214400E002D4B40461968FFF723FFB3E71046CDE762
S214400E1011184968C90744D491680344D26843F01E
S214400E200100CA6091606060E350A3E7142A16D8B8
S214400E3002F15C07FF0002F15B05AAE70123AA1056
S214400E404D6893402B434B600346B0E743F00102A6
S214400E504C610C61E560A5606260E3508AE7542A05
S214400E6006D81A0B02F16F07FF0002F16E0590E7F5
S214400E70B2F5AA7F06D8DA0B02F17807FF0002F136
S214400E80770586E740F25450824206D89A0C02F123
S214400E907D07FF0002F17C057BE74FF47E777E25D9
S214400EA077E743F001016160136063E71C050020AB
S214400EB02405002028090020A00A0020704700BF13
S214400EC0704700BF024B0146186800F003B800BFE9
S214400ED0EC0000202DE9F04F01F10B06162E83B0F2
S214400EE0054640F29E8036F0070600F1BD80B142CE
S214400EF000F2BA8000F090FAB6F5FC7FC0F085822A
S214400F00730A00F0B880042B00F26C81B30903F139
S214400F10390003F1380EC100B84F39444C680839DF
S214400F20A14206D10CE0002A80F2AB80E468A142E0
S214400F3006D0636823F003039A1B0F2AF3DD70463E
S214400F403C69DFF8CCE2744500F09E81636823F08C
S214400F5003039A1B0F2A00F38381002AC7F814E084
S214400F60C7F810E080F29180B3F5007F80F054819E
S214400F700122DB0879684FEAA30C134457F8338004
S214400F8002FA0CF207EBC30C0A43ACF10801E1602D
S214400F90C4F808807A6047F83340C8F80C4001240B
S214400FA083109C4094427DD8144206D120F0030022
S214400FB06400144200F10400FAD007EBC009CC46A6
S214400FC08046DCF80C309C4507D15FE1002A80F271
S214400FD06D81DB689C4500F05981596821F003011A
S214400FE08A1B0F2AF2DDDC68D3F808C046F00108F9
S214400FF028461E4442F00105C3F80480CCF80C4055
S214401000C4F808C07E613E61C6F80CE0C6F808E049
S21440101075605A50009300F005FA009B03F10804EF
S2144010201EE0102920D800F0F7F9102618230220D9
S214401030724F3B445C68A3F10802944200F02F8153
S2144010406368E16823F0030323445A68A66842F0C5
S2144010500102F16028468E605A6000F0E3F90834D9
S214401060204603B0BDE8F08F00240C2320462B60BA
S21440107003B0BDE8F08F40204FF400714FF03F0EB4
S2144010804AE723445A68E168E0E723445A6828461A
S21440109042F001025A60083400F0C4F9204603B01A
S2144010A0BDE8F08FBC68636823F00308B04504D3FE
S2144010B0A8EB06030F2B00F38580DFF85891504BC2
S2144010C0D9F800201B680132334404EB080A00F0CC
S2144010D0548103F580530F3323F47F6B2BF00F0BB3
S2144010E05946284600F0A4F9411C024600F0FB8011
S2144010F0824500F2F680434B19685944196000F067
S2144011004C81D9F8000001301BBFA2EB0A0A5144BB
S214401110C9F80020196012F0070100F01481C1F1EF
S2144011200800C1F580510244083102EB0B09C9F3AF
S2144011300B09A1EB0909494628460193009200F0A5
S21440114077F9431C9DE80C0000F04281801A484421
S21440115040F001001968BC424944BA6019605060CA
S21440116017D0B8F10F0F40F2FA804FF0050C6268C6
S214401170A8F10C0020F0070002F0010204EB000E7C
S21440118002430F286260CEF804C0CEF808C000F2D2
S21440119016811D4BBC681A68914288BF19601B4B6C
S2144011A01A689142626888BF196022F0030296422C
S2144011B0A2EB060301D80F2B04DC284600F032F9D8
S2144011C000244DE746F0010243F0010326446260E6
S2144011D02846BE600834736000F024F9204603B009
S2144011E0BDE8F08F142B70D9542B00F2A280330B3D
S2144011F003F16F0003F16E0EC1008DE61C05002062
S214401200A00A0020700A0020980A00209C0A0020AD
S21440121024050020240900205A0A042A5BD9142AEF
S21440122000F2AE8002F15C01C9005B3207EB010CB4
S2144012307958ACF1080C8C4500F088804A6822F05A
S2144012400302934273D289688C45F7D1DCF80C30A0
S2144012507A68E360C4F808C09C60CCF80C409EE610
S21440126046F0010C42F001012644C4F804C028466A
S2144012707E613E61C6F80CE0C6F808E07160E25058
S21440128000F0D0F80834EBE67A6888E608F1010802
S21440129018F0030F0CF1080C7FF493AE2DE0DC68D9
S2144012A0A34208BF02303FF44BAEC9E61C46194481
S2144012B04A68DB6854F8086F42F001024A602846E4
S2144012C0F3609E6000F0AEF8CAE603F15C0003F1FE
S2144012D05B0EC10020E69A0902F13901C900383296
S2144012E0A4E7BC4254D0BC68626822F003025EE7C2
S2144012F059F80839994540F0868010F0030F00F100
S214401300FF30F5D17B6823EA04037B6064009C428F
S2144013103FF6C8AE002C3FF4C5AE1C4240467FF4B4
S2144013204CAE64001C4200F10400FAD045E68C4600
S2144013308CE7B3F5AA7F15D8F30B03F1780003F1D9
S214401340770EC100E8E54FF48051EEE601217B6858
S214401350921001FA02F21A437A60634679E7012353
S21440136053602AE740F25452934222D8B30C03F11A
S2144013707D0003F17C0EC100CEE503F1100BAFE615
S214401380542A29D81A0B02F16F01C9006E324DE774
S214401390204B196859441960B3E6CAF30B0000287D
S2144013A07FF4AFAE08EB0B03BA6843F0010353601B
S2144013B0EFE67F204FF47E714FF07E0EACE504F1F1
S2144013C0080128460093FFF793FC009B1968E0E667
S2144013D001204FF00009BDE6B2F5AA7F05D8DA0B2A
S2144013E002F17801C900773220E740F254518A4230
S2144013F005D89A0C02F17D01C9007C3216E74FF4FD
S2144014007E717E2212E77B6880E7F00806F10803CB
S2144014100EE600BF700A00200148FFF74FBD00BF30
S214401420B80A00200148FFF74BBD00BFB80A0020AD
S21440143038B50023064C054608462360FFF740FAB9
S214401440431C00D038BD2368002BFBD02B6038BD32
S214401450CC0A00202DE9F8432C4D064628689846CD
S2144014600F469146FFF72AFD294B1C68D4F84831B1
S214401470002B3ED05A681F2A1CDC02F1010E76B1C2
S214401480012103EB8204C4F88890D3F88801914088
S2144014900843022EC3F88801C4F8088123D00232DC
S2144014A0C3F804E0286843F82270FFF709FD0020DF
S2144014B0BDE8F883174B0BB34FF4C870FFF702FD37
S2144014C00346D8B10020D4F848114FF0010E5860BA
S2144014D019600246C4F84831C3F88801C3F88C0145
S2144014E0002EDCD0CCE7D3F88C010143C3F88C1136
S2144014F0D5E704F5A673C4F84831BBE72868FFF77C
S214401500DFFC4FF0FF30BDE8F88300BF1805002031
S21440151018154000C50E4000F0000020F8B500BF8A
S214401520F8BC08BC9E467047FD0B4000F5004000E6
S214401530F8B500BFF8BC08BC9E467047D1004000D6
S2144015404FF440721F4B1A60A3F5C0631B6A13F03A
S214401550807F07D11C4A1D4B1A621A46936E13F0C1
S214401560010FFBD01A4A194B1A621A46936E13F4AF
S214401570803FFBD0154A136B23F0030343F001036F
S2144015801363936E13F0080FFBD0124A0F4B9A6208
S2144015901A46936E13F0020FFBD011220B4B1A63C0
S2144015A01A46936E13F0080FFBD01222074B1A63AD
S2144015B01A46936E13F0080FFBD0074A074B1A6083
S2144015C0704700BF000A0E400908370000040E406E
S2144015D009083701033F1F200090D003E800002091
S2144015E00C4B98420CD90C4B98420DD90B4B984259
S2144015F094BF4FF400724FF44072094B1A60704724
S2144016000022074B1A6070474FF48072044B1A60F2
S214401610704700BF3F6603017FC3C9017FF93703A8
S214401620000A0E400100000000093D00F0000020C6
S21440163000000000DC03002044040020AC0400202E
S2144016400000000000000000000000000000000055
S2144016500000000000000000000000000000000045
S2144016600000000000000000000000000000000035
S2144016700000000000000000000000000000000025
S2144016800000000000000000000000000000000015
S2144016900000000000000000000000000000000005
S2144016A000000000000000000000000000000000F5
S2144016B000000000000000000000000000000000E5
S2144016C000000000000000000000000000000000D5
S2144016D000000000000000000100000000000000C4
S2144016E00E33CDAB34126DE6ECDE05000B00000089
S2144016F000000000000000000000000000000000A5
S2144017000000000000000000000000000000000094
S2144017100000000000000000000000000000000084
S2144017200000000000000000000000000000000074
S214401A500000000000000000A80A0020000000006F
S214401A60000000001C0500201C0500202405002066
S214401A70240500202C0500202C05002034050020DD
S214401A80340500203C0500203C050020440500208D
S214401A90440500204C0500204C050020540500203D
S214401AA0540500205C0500205C05002064050020ED
S214401AB0640500206C0500206C050020740500209D
S214401AC0740500207C0500207C050020840500204D
S214401AD0840500208C0500208C05002094050020FD
S214401AE0940500209C0500209C050020A4050020AD
S214401AF0A4050020AC050020AC050020B40500205D
S214401B00B4050020BC050020BC050020C40500200C
S214401B10C4050020CC050020CC050020D4050020BC
S214401B20D4050020DC050020DC050020E40500206C
S214401B30E4050020EC050020EC050020F40500201C
S214401B40F4050020FC050020FC05002004060020CB
S214401B50040600200C0600200C0600201406002078
S214401B60140600201C0600201C0600202406002028
S214401B70240600202C0600202C06002034060020D8
S214401B80340600203C0600203C0600204406002088
S214401B90440600204C0600204C0600205406002038
S214401BA0540600205C0600205C06002064060020E8
S214401BB0640600206C0600206C0600207406002098
S214401BC0740600207C0600207C0600208406002048
S214401BD0840600208C0600208C06002094060020F8
S214401BE0940600209C0600209C060020A4060020A8
S214401BF0A4060020AC060020AC060020B406002058
S214401C00B4060020BC060020BC060020C406002007
S214401C10C4060020CC060020CC060020D4060020B7
S214401C20D4060020DC060020DC060020E406002067
S214401C30E4060020EC060020EC060020F406002017
S214401C40F4060020FC060020FC06002004070020C6
S214401C50040700200C0700200C0700201407002073
S214401C60140700201C0700201C0700202407002023
S214401C70240700202C0700202C07002034070020D3
S214401C80340700203C0700203C0700204407002083
S214401C90440700204C0700204C0700205407002033
S214401CA0540700205C0700205C07002064070020E3
S214401CB0640700206C0700206C0700207407002093
S214401CC0740700207C0700207C0700208407002043
S214401CD0840700208C0700208C07002094070020F3
S214401CE0940700209C0700209C070020A4070020A3
S214401CF0A4070020AC070020AC070020B407002053
S214401D00B4070020BC070020BC070020C407002002
S214401D10C4070020CC070020CC070020D4070020B2
S214401D20D4070020DC070020DC070020E407002062
S214401D30E4070020EC070020EC070020F407002012
S214401D40F4070020FC070020FC07002004080020C1
S214401D50040800200C0800200C080020140800206E
S214401D60140800201C0800201C080020240800201E
S214401D70240800202C0800202C08002034080020CE
S214401D80340800203C0800203C080020440800207E
S214401D90440800204C0800204C080020540800202E
S214401DA0540800205C0800205C08002064080020DE
S214401DB0640800206C0800206C080020740800208E
S214401DC0740800207C0800207C080020840800203E
S214401DD0840800208C0800208C08002094080020EE
S214401DE0940800209C0800209C080020A40800209E
S214401DF0A4080020AC080020AC080020B40800204E
S214401E00B4080020BC080020BC080020C4080020FD
S214401E10C4080020CC080020CC080020D4080020AD
S214401E20D4080020DC080020DC080020E40800205D
S214401E30E4080020EC080020EC080020F40800200D
S214401E40F4080020FC080020FC08002004090020BC
S214401E50040900200C0900200C0900201409002069
S210401E6014090020FFFFFFFF00000200F6
S8044007199B
