:020000040040BA
:10000000083100202D074000290740002907400043
:100010002907400029074000290740000000000090
:100020000000000000000000000000002907400060
:100030002907400000000000290740002907400070
:1000400029074000290740002907400029074000F0
:1000500029074000290740002907400029074000E0
:10006000DD284000992B400029074000290240006C
:100070003D024000290740002907400029074000B1
:1000800029074000290740002907400029074000B0
:1000900029074000290740002907400029074000A0
:1000A0002907400029074000290740002907400090
:1000B0002907400029074000290740002907400080
:1000C0002907400029074000290740002907400070
:1000D00010B5054C237833B9044B13B10448AFF382
:1000E00000800123237010BD500500200000000097
:1000F000D83D400008B5064B1BB106480649AFF392
:1001000000800648036813B1054B03B1984708BD4A
:1001100000000000D83D400054050020D83D4000BC
:1001200000000000014BC3F81401704700020E40AC
:100130000B4619B1096881605B68C3601AB1136826
:1001400083615368C361704721F0FE01C905C90D81
:100150000162704710B50E480E4B984700203E21B3
:100160000D4B98470D4CA0470028FCD00C4B9847EE
:100170000C4A0D4B9A620D4CA0470028FCD0102071
:100180000B4B98470B4B98470148024B984710BDC3
:100190000090D003AD000020B502400009034000EC
:1001A00019034000033F1F2000040E4029034000B4
:1001B00051024000DD0740002DE9F84381460E461C
:1001C000144B984705464846134B9847054017D0AF
:1001D000124F07F10C046C3754F80C3CB3420AD1AF
:1001E00054F8081C294206D023683046984754F832
:1001F000083C25EA0305BC4202D01034002DEBD1A7
:10020000074B1B6823B1074B1B680BB14846984747
:10021000BDE8F883990540009D0540007005002069
:10022000FC0500206C05002008B502480B21024B9C
:10023000984708BD000E0E40B901400008B50248BD
:100240000C21024B984708BD00100E40B901400038
:10025000174B1A6B22F07002104318639B6E13F059
:10026000080F09D14FF40063114901E0013B19D097
:100270008A6E12F0080FF9D00D4B1A6B22F00302B0
:1002800042F002021A63986E10F008000CD14FF48D
:100290000063074901E0013B08D08A6E12F0080FA5
:1002A000F9D0704701207047002070470120704747
:1002B00000040E4038B111490B6A114A1A40114B23
:1002C00013430B6270470D4A136A23F45C1323F047
:1002D000030343F45C1343F00103090289B20B43A7
:1002E0001362936E13F0010FFBD0044A136A43F0BC
:1002F0009B7343F480331362704700BF00040E40C9
:10030000FCFFC8FE02003701024B986E00F48030FB
:10031000704700BF00040E404FF00052014B9A623C
:10032000704700BF00040E40024B986E00F00200C0
:10033000704700BF00040E40222820D81F280DD887
:10034000124B9A69012383401A40934219D001232A
:1003500003FA00F00D4B1861002070470B4BD3F8E7
:1003600008212038012383401A4093420BD00123F7
:1003700003FA00F0054BC3F800010020704701208C
:100380007047002070470020704700BF00040E40F7
:1003900010B4AC2303600A684B68B2FBF3F31B098B
:1003A0005C1E4FF6FE7294420AD803628B6843606B
:1003B00040F20223C0F8203150230360002000E007
:1003C00001205DF8044B704740230360704700BF75
:1003D00010230360704700BF50230360704700BFC5
:1003E0008160704740697047436913F0010F1DBF7A
:1003F00083690B7000200120704700BF034B044A43
:10040000044988420CBF10461846704700070E404A
:1004100000090E4000080E4010B44264B1F1C05F04
:100420002ED008D8B1F1006F14D0B1F1805F1DD08B
:10043000002935D135E0B1F1205F32D003D8B1F1D8
:10044000005F27D02CE0B1F1405F2AD0B1F1605FAE
:1004500027D025E0016F046FD34321401940016785
:10046000416F446F21400B40436719E0036F134312
:100470000367436F416F0B4023EA020343670FE0BA
:10048000036F016F0B4023EA02030367436F1343BB
:10049000436705E0036F13430367436F13434367E9
:1004A00042605DF8044B7047416412F0010F14BFC5
:1004B0004166016612F00A0F14BF0162416212F038
:1004C000020F02D0C0F8801004E012F0080F18BF2D
:1004D000C0F8841041610160704700BF10B44164EE
:1004E000019C0CB1416600E001660BB1016500E0C2
:1004F00041650AB1016300E04163016101605DF89B
:10050000044B7047F0B583B007460C4616461D46AF
:10051000B1F1005F14D009D8B1F1805F10D0B1F112
:10052000C05F0DD0B1F1006F2CD109E0B1F1405F97
:1005300018D0B1F1605F15D0B1F1205F0CD021E08F
:10054000384621463246114B984715F0010F14BF2B
:100550007E663E66012016E011461A460C4B98470F
:10056000012010E005F00103009338463146B4F154
:10057000605F14BF00220122C5F38003054CA04731
:10058000012000E0002003B0F0BD00BF19044000CE
:10059000A9044000DD044000C06C7047806C7047C7
:1005A000430903F5001303F207735B02DB6B00F0F2
:1005B0001F0023FA00F000F001007047430903F523
:1005C000001303F207735B0200F01F00012202FA1E
:1005D00000F01863704700BF430903F5001303F2EE
:1005E00007735B0200F01F00012202FA00F058635B
:1005F000704700BF70B582B00D46440904F5001481
:1006000004F20774660201F0F044B4F1005F47D0D1
:1006100009D8B4F1805F21D0B4F1C05F2FD0B4F11C
:10062000006F6FD109E0B4F1405F55D0B4F1605F65
:1006300052D0B4F1205F44D064E000F01F000124E8
:10064000844030464FF000612246304B984715F009
:10065000010F14BF74663466012054E000F01F00DF
:100660000124844030464FF080512246274B984762
:1006700015F0010F14BF74663466012043E000F0EA
:100680001F000124844030464FF0C05122461F4BCA
:10069000984715F0010F14BF74663466012032E0EC
:1006A00000F01F000124844030464FF000512246E4
:1006B000164B984715F0010F14BF7466346601207D
:1006C00021E000F01F010124304604FA01F12A461E
:1006D0000F4B9847204616E000F01F01012405F05B
:1006E000605205EA04030093304604FA01F1B2F1C6
:1006F000605F14BF00220122C5F38003054DA847A7
:10070000204600E0002002B070BD00BF1904400088
:10071000A9044000DD0440004FF40042014B5A6040
:10072000704700BF50140E40FEE700BF10B51E4BCF
:100730001E4A9A4203D01E4B1B4A9A4204D31D4BB9
:100740001D4A9A420FD31AE01C4B1D4CE41A24F0A8
:10075000030404340023144814495A581A5004332B
:10076000A342FAD1EBE7174B1749C91A21F003014D
:100770001A1D1144002243F8042F8B42FBD1134A67
:1007800022F0604323F07F0311498B6002F1604245
:10079000B2F5804F03D28A6842F000528A600D4B56
:1007A00098470D4B9847FEE700000020D83D4000D9
:1007B00050050020081100205005002004000020F2
:1007C000530500204C0500200311002000004000CC
:1007D00000ED00E0613C40006D3040003D4B1B6B84
:1007E00003F00303032B5DD8DFE803F0020E2B2B8D
:1007F000394B5B6913F0800F14BF4FF400424FF484
:10080000FA42364B1A604DE0324B1B6A13F0807F80
:1008100003D0334A314B1A6044E0324A2F4B1A60FE
:100820002C4B1B6A03F07003102B02D0202B04D03A
:1008300038E02D4A294B1A6034E0294A274B1A60C8
:1008400030E0244B1B6A13F0807F03D0244A234BF3
:100850001A6012E0234A214B1A601E4B1B6A03F0F8
:100860007003102B02D0202B04D006E01E4A1B4B35
:100870001A6002E01A4A194B1A60164B1B6B03F000
:100880000303022B134B07BF986A996AD86AD96A87
:10089000124BC0F30A401A6800FB0222C9B2B2FB35
:1008A000F1F21A600B4B1B6B03F07003702B07D136
:1008B0000A4B1A680D49A1FB020252081A607047E0
:1008C000044B196B054BC1F302111A68CA401A6038
:1008D000704700BF00040E4010140E40F4000020CA
:1008E000001BB70000093D0000127A00ABAAAAAABB
:1008F00030B58BB012238DF8083002238DF8093003
:1009000042238DF80A308DF80B00002A3BDD0023CE
:1009100002A81844CC5C047101339342F8D1141D31
:10092000501D0AAB2344032203F8202C0028D8BF13
:10093000002206DD2CE002A9595C4A4001338342C3
:10094000F9DB0AAB18441309303300F8203C0AAB3A
:10095000234402F00F02303203F81E2C042203F865
:100960001D2C0E480E4B984705464FF480710D4BD9
:10097000984702AB0093043401942846694600224C
:10098000094B984707E003238DF80C300520042419
:1009900000231A46CFE70BB030BD00BF00060E4063
:1009A000FD034000490140003101400030B585B0F1
:1009B0000C4B1B88ADF80C3000240B4B1C600B4813
:1009C0000B4B984705464FF480710A4B984703AB91
:1009D000019302230293284601A92246064B984719
:1009E00005B030BDA83D40001401002000060E40B7
:1009F000FD034000490140003101400030B583B0A3
:100A0000114B1B78802B1DD0104CA1232370152374
:100A100063700F4B1B78A37083F0B4035B42E370E9
:100A2000FC2323710B480C4B984705464FF480710B
:100A30000A4B9847009405230193284669460022F3
:100A4000074B984703B030BD08060020080B002074
:100A5000ED05002000080E40FD0340004901400064
:100A60003101400010B44D2801F2EE86DFE810F0AD
:100A70004E008C00C90004023E037B03B604EC0563
:100A8000260760089A09D40A0A0C3B0D700EAC0EBA
:100A9000EC0EEC0E07014202EC0EB903F4042E0634
:100AA00064079E08D809120B470C7C0DEC0EEC0E67
:100AB000EC0EEC0E45018002EC0EF70332056C06DD
:100AC000A607DC08160A4F0B840CB90DEC0EEC0ED1
:100AD000EC0EEC0E8301BE02EC0E35047005AA0686
:100AE000E4071E09540A8C0BC10CF60DEC0EEC0E3B
:100AF000EC0EEC0EC601FC02EC0E7304AE05E8062B
:100B000022085C09960AC90BFE0C330EB949FF2472
:100B10000C64B94A146400234B6453648B6493647B
:100B2000CB64D3640B6513654C6554658B66936623
:100B3000CB66D3660B6713674B675367C1F880407A
:100B4000C2F88040C1F89830C2F89830C1F89C30A3
:100B5000C2F89C30C1F8A830C2F8A830C1F8AC3057
:100B6000C2F8AC30C1F8B030C2F8B030C1F8C03013
:100B7000C2F8C030C1F8C430C2F8C430C1F8C830BF
:100B8000C2F8C83001F09FBE9A4900230B649A4A0C
:100B900013644B6453648B649364CB64D3640B65BC
:100BA00013654B6553658B669366CB66D3660B679F
:100BB00013674B675367C1F88030C2F88030C1F8C3
:100BC0009830C2F89830C1F89C30C2F89C30C1F817
:100BD000A830C2F8A830C1F8AC30C2F8AC30C1F8C7
:100BE000B030C2F8B030C1F8C030C2F8C030C1F87F
:100BF000C430C2F8C430C1F8C830C2F8C83001F0FF
:100C000062BE7C49FF248C677B4A9467CC67D467BB
:100C100000238B649364CB64D3640B6513654B65CD
:100C200053658B669366CB66D3660B6713674C6719
:100C30005467C1F88030C2F88030C1F89830C2F8EB
:100C40009830C1F89C30C2F89C30C1F8A830C2F886
:100C5000A830C1F8AC30C2F8AC30C1F8B030C2F83E
:100C6000B030C1F8C030C2F8C030C1F8C430C2F8EA
:100C7000C430C1F8C830C2F8C83001F024BE5D49A4
:100C8000FF248C675C4A9467CC67D46700238B642D
:100C90009364CB64D3640B6513654B6553658B66B6
:100CA0009366CB66D3660C6714674B675367C1F8CE
:100CB0008030C2F88030C1F89830C2F89830C1F85E
:100CC0009C30C2F89C30C1F8A830C2F8A830C1F8F6
:100CD000AC30C2F8AC30C1F8B030C2F8B030C1F8B6
:100CE000C030C2F8C030C1F8C430C2F8C430C1F856
:100CF000C830C2F8C83001F0E6BD3E49FF248C6719
:100D00003D4A9467CC67D46700238B649364CB64BB
:100D1000D3640B6513654B6553658B669366CC6630
:100D2000D4660B6713674C675467C1F88030C2F80C
:100D30008030C1F89830C2F89830C1F89C30C2F8C1
:100D40009C30C1F8A830C2F8A830C1F8AC30C2F865
:100D5000AC30C1F8B030C2F8B030C1F8C030C2F821
:100D6000C030C1F8C430C2F8C430C1F8C830C2F8CD
:100D7000C83001F0A8BD1F49FF248C671E4A946744
:100D8000CC67D46700238B649364CB64D3640B6516
:100D900013654B6553658B669366CC66D4660C67AA
:100DA00014674B675367C1F88030C2F88030C1F8D0
:100DB0009830C2F89830C1F89C30C2F89C30C1F825
:100DC000A830C2F8A830C1F8AC30C2F8AC30C1F8D5
:100DD000B030C2F8B030C1F8C030C2F8C030C1F88D
:100DE000C430C2F8C430C1F8C830C2F8C83001F00D
:100DF0006ABD00BF08070020080C0020B949FF2485
:100E00008C67B94A9467CC67D46700238B6493647A
:100E1000CB64D3640B6513654B6553658C66946630
:100E2000CB66D3660C6714674B675367C1F8803095
:100E3000C2F88030C1F89830C2F89830C1F89C30C0
:100E4000C2F89C30C1F8A830C2F8A830C1F8AC3064
:100E5000C2F8AC30C1F8B030C2F8B030C1F8C03020
:100E6000C2F8C030C1F8C430C2F8C430C1F8C830CC
:100E7000C2F8C83001F027BD9A49FF240C649A4A91
:100E800014644C64546400238B649364CC64D46411
:100E90000C6514654B6553658B669366CB66D366AC
:100EA0000B6713674B675367C1F88030C2F8803017
:100EB000C1F89830C2F89830C1F89C30C2F89C3024
:100EC000C1F8A830C2F8A830C1F8AC30C2F8AC30D4
:100ED000C1F8B030C2F8B030C1F8C030C2F8C0308C
:100EE000C1F8C430C2F8C430C1F8C830C2F8C83044
:100EF00001F0E9BC7B49FF240C647B4A14640023A5
:100F00004B6453648B649364CC64D4640B65136545
:100F10004C6554658B669366CB66D3660B67136727
:100F20004B675367C1F88030C2F88030C1F8983001
:100F3000C2F89830C1F89C30C2F89C30C1F8A83093
:100F4000C2F8A830C1F8AC30C2F8AC30C1F8B0304B
:100F5000C2F8B030C1F8C030C2F8C030C1F8C430F7
:100F6000C2F8C430C1F8C830C2F8C83001F0ABBC18
:100F70005C49FF240C645C4A14644C6454648C64C3
:100F800094640023CB64D3640C6514654B6553658E
:100F90008B669366CB66D3660B6713674B675367A5
:100FA000C1F88030C2F88030C1F89830C2F898306B
:100FB000C1F89C30C2F89C30C1F8A830C2F8A83003
:100FC000C1F8AC30C2F8AC30C1F8B030C2F8B030C3
:100FD000C1F8C030C2F8C030C1F8C430C2F8C43063
:100FE000C1F8C830C2F8C83001F06DBC3D49FF24DB
:100FF0000C643D4A146400234B6453648C64946411
:10100000CB64D3640B6513654C6554658B6693663E
:10101000CB66D3660B6713674B675367C1F88030A5
:10102000C2F88030C1F89830C2F89830C1F89C30CE
:10103000C2F89C30C1F8A830C2F8A830C1F8AC3072
:10104000C2F8AC30C1F8B030C2F8B030C1F8C0302E
:10105000C2F8C030C1F8C430C2F8C430C1F8C830DA
:10106000C2F8C83001F02FBC1E4900230B641E4A91
:1010700013644B6453648B649364FF24CC64D46422
:101080000B6513654C6554658B669366CB66D366BA
:101090000B6713674B675367C1F88030C2F8803025
:1010A000C1F89830C2F89830C1F89C30C2F89C3032
:1010B000C1F8A830C2F8A830C1F8AC30C2F8AC30E2
:1010C000C1F8B030C2F8B030C1F8C030C2F8C0309A
:1010D000C1F8C430C2F8C430C1F8C830C2F8C83052
:1010E00001F0F1BB08070020080C0020B9490023DB
:1010F0000B64B94A13644B6453648B649364CB648C
:10110000D3640B6513654B6553658B669366CB663D
:10111000D3660B6713674B675367C1F88030C2F81B
:101120008030C1F89830C2F89830C1F89C30C2F8CD
:101130009C30C1F8A830C2F8A830C1F8AC30C2F871
:10114000AC30C1F8B030C2F8B030C1F8C030C2F82D
:10115000C030C1F8C430C2F8C430C1F8C830C2F8D9
:10116000C83001F0B0BB9B4900230B649A4A13645A
:101170004B6453648B649364CB64D3640B651365D5
:101180004B6553658B669366CB66D366FF240C670D
:1011900014674B675367C1F88030C2F88030C1F8DC
:1011A0009830C2F89830C1F89C30C2F89C30C1F831
:1011B000A830C2F8A830C1F8AC30C2F8AC30C1F8E1
:1011C000B030C2F8B030C1F8C030C2F8C030C1F899
:1011D000C430C2F8C430C1F8C830C2F8C83001F019
:1011E00072BB7C4900230B647B4A13644B645364D9
:1011F0008B649364CB64D3640B6513654B65536553
:101200008B669366CB66D3660B671367FF244C67C8
:101210005467C1F88030C2F88030C1F89830C2F805
:101220009830C1F89C30C2F89C30C1F8A830C2F8A0
:10123000A830C1F8AC30C2F8AC30C1F8B030C2F858
:10124000B030C1F8C030C2F8C030C1F8C430C2F804
:10125000C430C1F8C830C2F8C83001F034BB5D49B1
:1012600000230B645C4A13644B6453648B64936483
:10127000CB64D3640B6513654B655365FF248C66A3
:101280009466CB66D3660C6714674B675367C1F8E7
:101290008030C2F88030C1F89830C2F89830C1F878
:1012A0009C30C2F89C30C1F8A830C2F8A830C1F810
:1012B000AC30C2F8AC30C1F8B030C2F8B030C1F8D0
:1012C000C030C2F8C030C1F8C430C2F8C430C1F870
:1012D000C830C2F8C83001F0F6BA3E4900230B64AA
:1012E0003D4A13644B6453648B649364CB64D3644E
:1012F0000B6513654B655365FF248C669466CB665E
:10130000D3660B6713674C675467C1F88030C2F827
:101310008030C1F89830C2F89830C1F89C30C2F8DB
:101320009C30C1F8A830C2F8A830C1F8AC30C2F87F
:10133000AC30C1F8B030C2F8B030C1F8C030C2F83B
:10134000C030C1F8C430C2F8C430C1F8C830C2F8E7
:10135000C83001F0B8BA1F4900230B641E4A136459
:101360004B6453648B649364CB64D3640B651365E3
:101370004B6553658B669366FF24CC66D4660B671A
:1013800013674C675467C1F88030C2F88030C1F8E9
:101390009830C2F89830C1F89C30C2F89C30C1F83F
:1013A000A830C2F8A830C1F8AC30C2F8AC30C1F8EF
:1013B000B030C2F8B030C1F8C030C2F8C030C1F8A7
:1013C000C430C2F8C430C1F8C830C2F8C83001F027
:1013D0007ABA00BF08070020080C0020B949FF2492
:1013E0000C64B94A14644C64546400238B649364A1
:1013F000CC64D4640C6514654B6553658B66936649
:10140000CB66D3660B6713674B675367C1F88030B1
:10141000C2F88030C1F89830C2F89830C1F89C30DA
:10142000C2F89C30C1F8A830C2F8A830C1F8AC307E
:10143000C2F8AC30C1F8B030C2F8B030C1F8C0303A
:10144000C2F8C030C1F8C430C2F8C430C1F8C830E6
:10145000C2F8C83001F037BA9A49FF240C649A4A9E
:10146000146400234B6453648B649364CC64D4642D
:101470000B6513654C6554658B669366CB66D366C6
:101480000B6713674B675367C1F88030C2F8803031
:10149000C1F89830C2F89830C1F89C30C2F89C303E
:1014A000C1F8A830C2F8A830C1F8AC30C2F8AC30EE
:1014B000C1F8B030C2F8B030C1F8C030C2F8C030A6
:1014C000C1F8C430C2F8C430C1F8C830C2F8C8305E
:1014D00001F0F9B97B49FF240C647B4A14644C6425
:1014E00054648C6494640023CB64D3640C651465E9
:1014F0004B6553658B669366CB66D3660B67136744
:101500004B675367C1F88030C2F88030C1F898301B
:10151000C2F89830C1F89C30C2F89C30C1F8A830AD
:10152000C2F8A830C1F8AC30C2F8AC30C1F8B03065
:10153000C2F8B030C1F8C030C2F8C030C1F8C43011
:10154000C2F8C430C1F8C830C2F8C83001F0BBB925
:101550005C49FF240C645C4A146400234B645364AC
:101560008C649464CB64D3640B6513654C655465DB
:101570008B669366CB66D3660B6713674B675367BF
:10158000C1F88030C2F88030C1F89830C2F8983085
:10159000C1F89C30C2F89C30C1F8A830C2F8A8301D
:1015A000C1F8AC30C2F8AC30C1F8B030C2F8B030DD
:1015B000C1F8C030C2F8C030C1F8C430C2F8C4307D
:1015C000C1F8C830C2F8C83001F07DB93D490023E8
:1015D0000B643D4A13644B6453648B649364FF242F
:1015E000CC64D4640B6513654C6554658B66936657
:1015F000CB66D3660B6713674B675367C1F88030C0
:10160000C2F88030C1F89830C2F89830C1F89C30E8
:10161000C2F89C30C1F8A830C2F8A830C1F8AC308C
:10162000C2F8AC30C1F8B030C2F8B030C1F8C03048
:10163000C2F8C030C1F8C430C2F8C430C1F8C830F4
:10164000C2F8C83001F03FB91E49FF240C641E4A9D
:1016500014644C64546400238B649364CC64D46439
:101660000C6514654B6553658B669366CB66D366D4
:101670000B6713674B675367C1F88030C2F880303F
:10168000C1F89830C2F89830C1F89C30C2F89C304C
:10169000C1F8A830C2F8A830C1F8AC30C2F8AC30FC
:1016A000C1F8B030C2F8B030C1F8C030C2F8C030B4
:1016B000C1F8C430C2F8C430C1F8C830C2F8C8306C
:1016C00001F001B908070020080C0020B949FF24E7
:1016D0000C64B94A146400234B6453648B649364B0
:1016E000CC64D4640B6513654C6554658B66936656
:1016F000CB66D3660B6713674B675367C1F88030BF
:10170000C2F88030C1F89830C2F89830C1F89C30E7
:10171000C2F89C30C1F8A830C2F8A830C1F8AC308B
:10172000C2F8AC30C1F8B030C2F8B030C1F8C03047
:10173000C2F8C030C1F8C430C2F8C430C1F8C830F3
:10174000C2F8C83001F0BFB89A4900230B649A4A26
:1017500013644B645364FF248C649464CB64D3643B
:101760000C6514654B6553658B669366CB66D366D3
:101770000B6713674B675367C1F88030C2F880303E
:10178000C1F89830C2F89830C1F89C30C2F89C304B
:10179000C1F8A830C2F8A830C1F8AC30C2F8AC30FB
:1017A000C1F8B030C2F8B030C1F8C030C2F8C030B3
:1017B000C1F8C430C2F8C430C1F8C830C2F8C8306B
:1017C00001F081B87B49FF240C647B4A14644C64AB
:1017D00054648C6494640023CB64D3640B651365F8
:1017E0004C6554658B669366CB66D3660B6713674F
:1017F0004B675367C1F88030C2F88030C1F8983029
:10180000C2F89830C1F89C30C2F89C30C1F8A830BA
:10181000C2F8A830C1F8AC30C2F8AC30C1F8B03072
:10182000C2F8B030C1F8C030C2F8C030C1F8C4301E
:10183000C2F8C430C1F8C830C2F8C83001F043B8AB
:101840005C4900230B645C4A13644B6453648B64EF
:101850009364FF24CC64D4640B6513654C655465B4
:101860008B669366CB66D3660B6713674B675367CC
:10187000C1F88030C2F88030C1F89830C2F8983092
:10188000C1F89C30C2F89C30C1F8A830C2F8A8302A
:10189000C1F8AC30C2F8AC30C1F8B030C2F8B030EA
:1018A000C1F8C030C2F8C030C1F8C430C2F8C4308A
:1018B000C1F8C830C2F8C83001F005B83D49FF246E
:1018C0000C643D4A14644C64546400238B64936438
:1018D000CC64D4640C6514654B6553658B66936664
:1018E000CB66D3660B6713674B675367C1F88030CD
:1018F000C2F88030C1F89830C2F89830C1F89C30F6
:10190000C2F89C30C1F8A830C2F8A830C1F8AC3099
:10191000C2F8AC30C1F8B030C2F8B030C1F8C03055
:10192000C2F8C030C1F8C430C2F8C430C1F8C83001
:10193000C2F8C83000F0C7BF1E49FF240C641E4A1D
:10194000146400234B6453648B649364CC64D46448
:101950000B6513654C6554658B669366CB66D366E1
:101960000B6713674B675367C1F88030C2F880304C
:10197000C1F89830C2F89830C1F89C30C2F89C3059
:10198000C1F8A830C2F8A830C1F8AC30C2F8AC3009
:10199000C1F8B030C2F8B030C1F8C030C2F8C030C1
:1019A000C1F8C430C2F8C430C1F8C830C2F8C83079
:1019B00000F089BF08070020080C0020B949002367
:1019C0000B64B94A13644B645364FF248C649464BD
:1019D000CB64D3640C6514654B6553658B66936665
:1019E000CB66D3660B6713674B675367C1F88030CC
:1019F000C2F88030C1F89830C2F89830C1F89C30F5
:101A0000C2F89C30C1F8A830C2F8A830C1F8AC3098
:101A1000C2F8AC30C1F8B030C2F8B030C1F8C03054
:101A2000C2F8C030C1F8C430C2F8C430C1F8C83000
:101A3000C2F8C83000F047BF9A49FF240C649A4AA4
:101A4000146400234B6453648C649464CB64D36447
:101A50000B6513654C6554658B669366CB66D366E0
:101A60000B6713674B675367C1F88030C2F880304B
:101A7000C1F89830C2F89830C1F89C30C2F89C3058
:101A8000C1F8A830C2F8A830C1F8AC30C2F8AC3008
:101A9000C1F8B030C2F8B030C1F8C030C2F8C030C0
:101AA000C1F8C430C2F8C430C1F8C830C2F8C83078
:101AB00000F009BF7B4900230B647B4A13644B642D
:101AC00053648B649364FF24CC64D4640B65136506
:101AD0004C6554658B669366CB66D3660B6713675C
:101AE0004B675367C1F88030C2F88030C1F8983036
:101AF000C2F89830C1F89C30C2F89C30C1F8A830C8
:101B0000C2F8A830C1F8AC30C2F8AC30C1F8B0307F
:101B1000C2F8B030C1F8C030C2F8C030C1F8C4302B
:101B2000C2F8C430C1F8C830C2F8C83000F0CBBE2B
:101B30005C49FF240C645C4A14644C6454640023C4
:101B40008B649364CC64D4640C6514654B655365F5
:101B50008B669366CB66D3660B6713674B675367D9
:101B6000C1F88030C2F88030C1F89830C2F898309F
:101B7000C1F89C30C2F89C30C1F8A830C2F8A83037
:101B8000C1F8AC30C2F8AC30C1F8B030C2F8B030F7
:101B9000C1F8C030C2F8C030C1F8C430C2F8C43097
:101BA000C1F8C830C2F8C83000F08DBE3D49FF24EE
:101BB0000C643D4A146400234B6453648B64936447
:101BC000CC64D4640B6513654C6554658B66936671
:101BD000CB66D3660B6713674B675367C1F88030DA
:101BE000C2F88030C1F89830C2F89830C1F89C3003
:101BF000C2F89C30C1F8A830C2F8A830C1F8AC30A7
:101C0000C2F8AC30C1F8B030C2F8B030C1F8C03062
:101C1000C2F8C030C1F8C430C2F8C430C1F8C8300E
:101C2000C2F8C83000F04FBE1E4900230B641E4AA4
:101C300013644B645364FF248C649464CB64D36456
:101C40000C6514654B6553658B669366CB66D366EE
:101C50000B6713674B675367C1F88030C2F8803059
:101C6000C1F89830C2F89830C1F89C30C2F89C3066
:101C7000C1F8A830C2F8A830C1F8AC30C2F8AC3016
:101C8000C1F8B030C2F8B030C1F8C030C2F8C030CE
:101C9000C1F8C430C2F8C430C1F8C830C2F8C83086
:101CA00000F011BE08070020080C0020B949FF24ED
:101CB0000C64B94A146400234B6453648C649464C8
:101CC000CB64D3640B6513654C6554658B66936672
:101CD000CB66D3660B6713674B675367C1F88030D9
:101CE000C2F88030C1F89830C2F89830C1F89C3002
:101CF000C2F89C30C1F8A830C2F8A830C1F8AC30A6
:101D0000C2F8AC30C1F8B030C2F8B030C1F8C03061
:101D1000C2F8C030C1F8C430C2F8C430C1F8C8300D
:101D2000C2F8C83000F0CFBD9A4900230B649A4A2C
:101D300013644B6453648B649364FF24CC64D46455
:101D40000B6513654C6554658B669366CB66D366ED
:101D50000B6713674B675367C1F88030C2F8803058
:101D6000C1F89830C2F89830C1F89C30C2F89C3065
:101D7000C1F8A830C2F8A830C1F8AC30C2F8AC3015
:101D8000C1F8B030C2F8B030C1F8C030C2F8C030CD
:101D9000C1F8C430C2F8C430C1F8C830C2F8C83085
:101DA00000F091BD7B49FF240C647B4A14644C64B1
:101DB000546400238B649364CC64D4640C65146510
:101DC0004B6553658B669366CB66D3660B6713676B
:101DD0004B675367C1F88030C2F88030C1F8983043
:101DE000C2F89830C1F89C30C2F89C30C1F8A830D5
:101DF000C2F8A830C1F8AC30C2F8AC30C1F8B0308D
:101E0000C2F8B030C1F8C030C2F8C030C1F8C43038
:101E1000C2F8C430C1F8C830C2F8C83000F053BDB1
:101E20005C49FF240C645C4A146400234B645364D3
:101E30008B649364CC64D4640B6513654C65546502
:101E40008B669366CB66D3660B6713674B675367E6
:101E5000C1F88030C2F88030C1F89830C2F89830AC
:101E6000C1F89C30C2F89C30C1F8A830C2F8A83044
:101E7000C1F8AC30C2F8AC30C1F8B030C2F8B03004
:101E8000C1F8C030C2F8C030C1F8C430C2F8C430A4
:101E9000C1F8C830C2F8C83000F015BD3D49002374
:101EA0000B643D4A13644B645364FF248C64946454
:101EB000CB64D3640C6514654B6553658B66936680
:101EC000CB66D3660B6713674B675367C1F88030E7
:101ED000C2F88030C1F89830C2F89830C1F89C3010
:101EE000C2F89C30C1F8A830C2F8A830C1F8AC30B4
:101EF000C2F8AC30C1F8B030C2F8B030C1F8C03070
:101F0000C2F8C030C1F8C430C2F8C430C1F8C8301B
:101F1000C2F8C83000F0D7BC1E49FF240C641E4A2A
:101F2000146400234B6453648C649464CB64D36462
:101F30000B6513654C6554658B669366CB66D366FB
:101F40000B6713674B675367C1F88030C2F8803066
:101F5000C1F89830C2F89830C1F89C30C2F89C3073
:101F6000C1F8A830C2F8A830C1F8AC30C2F8AC3023
:101F7000C1F8B030C2F8B030C1F8C030C2F8C030DB
:101F8000C1F8C430C2F8C430C1F8C830C2F8C83093
:101F900000F099BC08070020080C0020B749002376
:101FA0000B64B74A13644B6453648B649364FF24DB
:101FB000CC64D4640B6513654C6554658B6693667D
:101FC000CB66D3660B6713674B675367C1F88030E6
:101FD000C2F88030C1F89830C2F89830C1F89C300F
:101FE000C2F89C30C1F8A830C2F8A830C1F8AC30B3
:101FF000C2F8AC30C1F8B030C2F8B030C1F8C0306F
:10200000C2F8C030C1F8C430C2F8C430C1F8C8301A
:10201000C2F8C83000F057BC9849FF238B67984A34
:102020009367CB67D3678B669366CB66D3660B6784
:10203000136700234B6753678B649364CB64D3644B
:102040000B6513654B655365C1F88030C2F880306D
:10205000C1F89830C2F89830C1F89C30C2F89C3072
:10206000C1F8A830C2F8A830C1F8AC30C2F8AC3022
:10207000C1F8B030C2F8B030C1F8C030C2F8C030DA
:10208000C1F8C430C2F8C430C1F8C830C2F8C83092
:1020900000F019BC7949FF248C67794A9467CC67B2
:1020A000D4678C669466CC66D46600230B6713678E
:1020B0004C6754678B649364CB64D3640B6513657E
:1020C0004B655365C1F88030C2F88030C1F8983054
:1020D000C2F89830C1F89C30C2F89C30C1F8A830E2
:1020E000C2F8A830C1F8AC30C2F8AC30C1F8B0309A
:1020F000C2F8B030C1F8C030C2F8C030C1F8C43046
:10210000C2F8C430C1F8C830C2F8C830DBE35B495C
:10211000FF248C675A4A9467CC67D4678C669466B0
:102120000023CB66D3660C6714674B6753678B64D9
:102130009364CB64D3640B6513654B655365C1F839
:102140008030C2F88030C1F89830C2F89830C1F8B9
:102150009C30C2F89C30C1F8A830C2F8A830C1F851
:10216000AC30C2F8AC30C1F8B030C2F8B030C1F811
:10217000C030C2F8C030C1F8C430C2F8C430C1F8B1
:10218000C830C2F8C8309EE33C49FF248C673C4A03
:102190009467CC67D4678C6694660023CB66D3665D
:1021A0000B6713674C6754678B649364CB64D36489
:1021B0000B6513654B655365C1F88030C2F88030FC
:1021C000C1F89830C2F89830C1F89C30C2F89C3001
:1021D000C1F8A830C2F8A830C1F8AC30C2F8AC30B1
:1021E000C1F8B030C2F8B030C1F8C030C2F8C03069
:1021F000C1F8C430C2F8C430C1F8C830C2F8C83021
:1022000061E31E49FF248C671D4A9467CC67D4673D
:1022100000238B669366CC66D4660B6713674C67A6
:1022200054678B649364CB64D3640B6513654B650F
:102230005365C1F88030C2F88030C1F89830C2F8D8
:102240009830C1F89C30C2F89C30C1F8A830C2F870
:10225000A830C1F8AC30C2F8AC30C1F8B030C2F828
:10226000B030C1F8C030C2F8C030C1F8C430C2F8D4
:10227000C430C1F8C830C2F8C83024E308070020D1
:10228000080C0020B649FF238B67B64A9367CB67DB
:10229000D3678B669366CB66D3660B6713670023A1
:1022A0004B6753678B649364CB64D3640B6513658E
:1022B0004B655365C1F88030C2F88030C1F8983062
:1022C000C2F89830C1F89C30C2F89C30C1F8A830F0
:1022D000C2F8A830C1F8AC30C2F8AC30C1F8B030A8
:1022E000C2F8B030C1F8C030C2F8C030C1F8C43054
:1022F000C2F8C430C1F8C830C2F8C830E3E2984927
:10230000FF248C67974A9467CC67D4678C66946681
:10231000CC66D46600230B6713674C6754678B64E5
:102320009364CB64D3640B6513654B655365C1F847
:102330008030C2F88030C1F89830C2F89830C1F8C7
:102340009C30C2F89C30C1F8A830C2F8A830C1F85F
:10235000AC30C2F8AC30C1F8B030C2F8B030C1F81F
:10236000C030C2F8C030C1F8C430C2F8C430C1F8BF
:10237000C830C2F8C830A6E27949FF248C67794A90
:102380009467CC67D4678C6694660023CB66D3666B
:102390000C6714674B6753678B649364CB64D36497
:1023A0000B6513654B655365C1F88030C2F880300A
:1023B000C1F89830C2F89830C1F89C30C2F89C300F
:1023C000C1F8A830C2F8A830C1F8AC30C2F8AC30BF
:1023D000C1F8B030C2F8B030C1F8C030C2F8C03077
:1023E000C1F8C430C2F8C430C1F8C830C2F8C8302F
:1023F00069E25B49FF248C675A4A9467CC67D467CB
:102400008C6694660023CB66D3660B6713674C67B4
:1024100054678B649364CB64D3640B6513654B651D
:102420005365C1F88030C2F88030C1F89830C2F8E6
:102430009830C1F89C30C2F89C30C1F8A830C2F87E
:10244000A830C1F8AC30C2F8AC30C1F8B030C2F836
:10245000B030C1F8C030C2F8C030C1F8C430C2F8E2
:10246000C430C1F8C830C2F8C8302CE23C49FF245F
:102470008C673C4A9467CC67D46700238B6693666D
:10248000CC66D4660B6713674C6754678B649364A0
:10249000CB64D3640B6513654B655365C1F880301D
:1024A000C2F88030C1F89830C2F89830C1F89C303A
:1024B000C2F89C30C1F8A830C2F8A830C1F8AC30DE
:1024C000C2F8AC30C1F8B030C2F8B030C1F8C0309A
:1024D000C2F8C030C1F8C430C2F8C430C1F8C83046
:1024E000C2F8C830EFE11E49FF238B671D4A93678E
:1024F000CB67D3678B669366CB66D3660B67136730
:1025000000234B6753678B649364CB64D3640B6580
:1025100013654B655365C1F88030C2F88030C1F84F
:102520009830C2F89830C1F89C30C2F89C30C1F89D
:10253000A830C2F8A830C1F8AC30C2F8AC30C1F84D
:10254000B030C2F8B030C1F8C030C2F8C030C1F805
:10255000C430C2F8C430C1F8C830C2F8C830B2E1E3
:1025600008070020080C0020B549FF248C67B54AF5
:102570009467CC67D4678C669466CC66D466002377
:102580000B6713674C6754678B649364CB64D364A5
:102590000B6513654B655365C1F88030C2F8803018
:1025A000C1F89830C2F89830C1F89C30C2F89C301D
:1025B000C1F8A830C2F8A830C1F8AC30C2F8AC30CD
:1025C000C1F8B030C2F8B030C1F8C030C2F8C03085
:1025D000C1F8C430C2F8C430C1F8C830C2F8C8303D
:1025E00071E19749FF248C67964A9467CC67D4675A
:1025F0008C6694660023CB66D3660C6714674B67C2
:1026000053678B649364CB64D3640B6513654B652C
:102610005365C1F88030C2F88030C1F89830C2F8F4
:102620009830C1F89C30C2F89C30C1F8A830C2F88C
:10263000A830C1F8AC30C2F8AC30C1F8B030C2F844
:10264000B030C1F8C030C2F8C030C1F8C430C2F8F0
:10265000C430C1F8C830C2F8C83034E17849FF242A
:102660008C67784A9467CC67D4678C66946600233D
:10267000CB66D3660B6713674C6754678B649364B0
:10268000CB64D3640B6513654B655365C1F880302B
:10269000C2F88030C1F89830C2F89830C1F89C3048
:1026A000C2F89C30C1F8A830C2F8A830C1F8AC30EC
:1026B000C2F8AC30C1F8B030C2F8B030C1F8C030A8
:1026C000C2F8C030C1F8C430C2F8C430C1F8C83054
:1026D000C2F8C830F7E05A49FF248C67594A94671A
:1026E000CC67D46700238B669366CC66D4660B6791
:1026F00013674C6754678B649364CB64D3640B6536
:1027000013654B655365C1F88030C2F88030C1F85D
:102710009830C2F89830C1F89C30C2F89C30C1F8AB
:10272000A830C2F8A830C1F8AC30C2F8AC30C1F85B
:10273000B030C2F8B030C1F8C030C2F8C030C1F813
:10274000C430C2F8C430C1F8C830C2F8C830BAE0EA
:102750003B4900230B643B4A13644B6453648B6412
:102760009364CB64D3640B6513654B6553658B66CB
:102770009366CB66D3660B6713674B675367C1F8E5
:102780008030C2F88030C1F89830C2F89830C1F873
:102790009C30C2F89C30C1F8A830C2F8A830C1F80B
:1027A000AC30C2F8AC30C1F8B030C2F8B030C1F8CB
:1027B000C030C2F8C030C1F8C430C2F8C430C1F86B
:1027C000C830C2F8C8307EE01D4900230B641D4AA2
:1027D00013644B6453648B649364CB64D3640B6560
:1027E00013654B6553658B669366CB66D3660B6743
:1027F00013674B675367C1F88030C2F88030C1F867
:102800009830C2F89830C1F89C30C2F89C30C1F8BA
:10281000A830C2F8A830C1F8AC30C2F8AC30C1F86A
:10282000B030C2F8B030C1F8C030C2F8C030C1F822
:10283000C430C2F8C430C1F8C830C2F8C83042E071
:1028400008070020080C0020214900230B64214ABE
:1028500013644B6453648B649364CB64D3640B65DF
:1028600013654B6553658B669366CB66D3660B67C2
:1028700013674B6753678B679367CB67D367C1F861
:102880008030C2F88030C1F89830C2F89830C1F872
:102890009C30C2F89C30C1F8A830C2F8A830C1F80A
:1028A000AC30C2F8AC30C1F8B030C2F8B030C1F8CA
:1028B000C030C2F8C030C1F8C430C2F8C430C1F86A
:1028C000C830C2F8C830044B58705DF8044B7047EC
:1028D00008070020080C00200810002010B582B066
:1028E0002822984B1A609848984B984710F0010F8F
:1028F00000F0268194480DF10701954B98479549C2
:102900000A68531C0B609DF8071093488154012BF3
:1029100023D115290AD14222904B1A70904B984727
:102920000023904A1360904A136016E006290AD1EA
:102930000022884B1A60FF238C4A13708C4A137054
:102940008C4B984709E0102907D10022814B1A606F
:10295000FF23864A1370864A13707E4B1B68022B36
:1029600012D1FF22844B1A609DF80730422B0BD006
:10297000794B1B78022B07D00022764B1A60FF237D
:102980007A4A13707A4A1370724B1B68032B04D176
:102990009DF80710754A11700DE0042B04D19DF8C5
:1029A0000710734A11700DE0052B04D19DF8072024
:1029B000724B1A7010E0062B04D19DF80720704B63
:1029C0001A7009E0102B07DD0022624B1A60FF230A
:1029D000664A1370664A13705E4B1A68062A40F303
:1029E000AF809DF80730042B40F0AA80604B1B7825
:1029F000522B04D0542B0BD0302B31D111E0432279
:102A0000564B1A7000234F4A1360524A136097E0E6
:102A10004422524B1A7000234A4A13604D4A1360F5
:102A20008EE0131F4C49C95C032908D042224B4B4E
:102A30001A700023434A1360464A136080E0002066
:102A400050490860834214DD4F4B181F1044002288
:102A500013F8011F4A408342FAD14A4B1A6008E03A
:102A600042223E4B1A700023364A1360394A1360E3
:102A700066E0384B1B68002B62D03C4B1B783F2B29
:102A800004D0762B50D03C2B5AD126E03B4B1B7800
:102A90003E4A82F89030302B05D120203C4CA04794
:102AA0002120A0474CE0312B06D12020384B9847FD
:102AB0002120384B984743E0322B06D12020354B5C
:102AC00098472120324B98473AE0332B38D12020C9
:102AD000304CA0472120A04732E0254B1B78302BFB
:102AE00004D03022294B83F8902029E0234B1B7817
:102AF000302B04D13122254B83F8902020E0312B5C
:102B000004D13122214B83F8902019E0322B04D1DB
:102B100030221E4B83F8902012E0382B10D1302247
:102B20001A4B83F890200BE0114B1B78302B07D108
:102B3000124B1B78302B03D13022144B83F890209A
:102B400002B010BDFC00002000060E40E50340006E
:102B5000E90340000006002008060020ED050020E3
:102B6000FD0940002001002004060020050100208E
:102B7000E0050020AD09400018010020E20500201A
:102B8000EC050020F00500200706002008100020BA
:102B9000D9054000BD0540002DE9F04184B0142264
:102BA000A24B1A60A248A34B984710F0010F00F007
:102BB00036829F480DF10F019F4B98479F490A6845
:102BC000531C0B609DF80F509D498D54012B10D163
:102BD0009C4B1D60FF229C4B1A609C4B1B689D42C6
:102BE00007D0802D05D00022944B1A602022984BEC
:102BF0001A70924B1B68012B00F00E82924A1268E9
:102C00000432934203DA8F4A116869401160022B43
:102C10000FD1102D04D0A5F11A03DBB2012B02D87D
:102C20008B4B1D7005E00022844B1A602022884BDC
:102C30001A70824B1E68032E02D1864B1D6008E07D
:102C4000042E02D1804B1D6003E0052E04BF824B91
:102C50001D607F4B1B781A2B00F0C5801B2B00F0EA
:102C60006B81102B40F0CA81754B1B78802B00F0D4
:102C7000C581062E0BD1FC2D09D00222774B1A708C
:102C8000774B98470023694A13606C4A13606C4B7A
:102C900019785A7851409A784A40DB785340694A0B
:102CA0001360664A1268062A40F0A8815B42DAB2D5
:102CB000634B1B799A4209D00322684B1A70684B08
:102CC00098475E4B1B68062B40F098819DF80F30AB
:102CD000FC2B40F093815B4B1A685242D2B2584BA6
:102CE0001B799A4278D15B4B1A68574BD3F800E0B6
:102CF00082EA0E0181F0B101C9B2524B1960594B01
:102D0000A1211970102159709A7083F803E00EF117
:102D10000403042B42DD4B4B1C68134652481044FD
:102D20000EEB02064F4FBF1A4F4A00214FF00F0C17
:102D300090F80080FD1885F80480013310F8015BDD
:102D40006C4023F00205812D04BF82F8801082F8C8
:102D50008210822B01D0842B03D182F8811082F85B
:102D600083108A2B01D0872B03D182F8891082F837
:102D700086108B2B01D0882B03D182F88A1082F821
:102D80008710912B08BF82F890C0B342D0D10EF1CA
:102D9000040E2C4B1C602F4B1E6001E04FF0040E04
:102DA000304C284B1B685B4204F80E30A644FC23D1
:102DB0008EF801301E482D4B984705464FF4807120
:102DC0002B4B98470194204B1B68063302932846EF
:102DD00001A90022274B984720221D4B1A70002280
:102DE000164B1A600AE1164B1978164B1960164BF0
:102DF0001F68381D01280CDD114B012413F8012F29
:102E00004A400134844201DA1146F7E70D4B1A605B
:102E100000E001240637BE423BD1FC2D2CD002221B
:102E20000E4B1A700E4B984733E000BF2001002074
:102E300000080E40E5034000E903400004060020BE
:102E400008060020E4050020180100200C010020E5
:102E500024010020E805002010010020ED050020DD
:102E6000FD094000080B002008100020FD03400071
:102E700049014000310140006A4B1A685242D2B207
:102E8000694B1B5C9A4204D00322684B1A70684B52
:102E90009847684B19688A1D674B1B689A4240F037
:102EA000BE809DF80F30FC2B40F0AF805D4B1A6860
:102EB0005242D2B25C4B1B5D9A4240F0A6805F4BFF
:102EC0001A688B187F2B31DC00290BDD5C4B013A33
:102ED0005C4800EB8202581813F8011F42F8041FE7
:102EE0008342F9D12022584B1A704F4B1B78802B0C
:102EF00000F08480554CA1232370062363700025C5
:102F0000A5705923E370FC2323715148514B984716
:102F100006464FF48071504B984701940523029365
:102F2000304601A92A464D4B984767E004223F4BA3
:102F30001A703F4B984761E03B4B1B78802B5DD06C
:102F4000072E0BD1FC2D09D00222384B1A70384BBA
:102F500098470023424A1360374A1360324B19786E
:102F60005A7851409A785140DA784A401B79534058
:102F70002C4A1360304A1268072A3FD15B42DAB20A
:102F8000294B5B799A4208D00322284B1A70284BB0
:102F90009847294B1B68072B30D19DF80F30FC2B2D
:102FA0002CD1204B1A685242D2B21F4B5B799A4205
:102FB0001ED12C4B18782C4B9847244CA1232370FE
:102FC000062363700025A5705923E370FC23237149
:102FD0001F48204B984706464FF480711E4B984778
:102FE000019405230293304601A92A461B4B9847BA
:102FF0002022154B1A7000220F4B1A600D4B1A68D5
:1030000006320D4B1B689A4209D100220A4B1A6006
:1030100020220D4B1A7002E0074B1E6815E604B023
:10302000BDE8F081E405002008060020ED05002041
:10303000FD0940001801002004060020E8050020DA
:103040000B0600200807002024010020080B0020A8
:1030500000080E40FD0340004901400031014000DE
:103060002001002010010020650A40002DE9F04FEA
:1030700087B0AA4B9847AA4B98474FF4E050A94B0A
:1030800098470F204FF04051A74CA0470E204FF01B
:103090004051A04718204FF04051A0470D204FF05D
:1030A0004051A04710204FF02051A04714204FF06E
:1030B0002051A0472E204FF02051A0470B204FF069
:1030C0004051A0470C204FF04051A0471A204FF02C
:1030D0004051A04719204FF04051A04708204FF021
:1030E0004051A04707204FF04051A04706204FF025
:1030F0004051A04705204FF04051A04704204FF019
:103100002051A0471B204FF02051A0471C204FF01A
:103110002051A04703204FF04051A0471D204FF001
:103120004051A0471E204FF04051A0472D204FF0A6
:103130002051A0472B204FF02051A0472C204FF0CA
:103140004051A0472A204FF04051A047774D17200B
:103150002946A04716202946A04713202946A04704
:1031600015202946A04700202946A04724202946AB
:10317000A04725202946A04727202946A0472620EA
:103180002946A04720204FF04051A04721204FF072
:103190004051A04711204FF04051A04712204FF05E
:1031A0004051A0470920624CA0470820A0470C20AE
:1031B000A0470B20A0475F484FF000610C2200237E
:1031C0005D4CA0475D4B03934FF4E13304934FF400
:1031D0000068CDF814805A4C204603A9594FB847CF
:1031E00020460121584EB047584D4FF4007BC5F89A
:1031F00000B02046DFF86CC1E0472046544B9847AA
:103200002046DFF864A1D0472046DFF860C1E047E0
:1032100040F20111DFF85891C84720460121B0471C
:10322000C5F800B0DFF84CB101248BF80040BFF3C3
:103230005F8F62B647484FF000614FF4C0620023D1
:10324000DFF8F4C0E0473D4B00934FF49643019301
:10325000CDF80880DFF8208140466946B8474046EF
:103260002146B0474FF480772F604046DFF8F4C026
:10327000E0474046364B98474046D0474046DFF847
:10328000ECC0E04740F20111C84740462146B04734
:103290002F608BF80040BFF35F8F62B600222E4B89
:1032A0001A6017202D4B984718B92B4B1A682244E7
:1032B0001A601620294B984718B9274B1A68023212
:1032C0001A601320254B984718B9234B1A6804320B
:1032D0001A601520214B984718B91F4B1A680832FD
:1032E0001A601D4B1A6842F080021A6000221C4BC3
:1032F0001A702620194B984718B9194B1A780132C1
:103300001A702720154B984718B9154B1A780232B6
:103310001A702520114B984730E000BF550140003E
:103320001907400025014000F50540000100002874
:103330003903400000100E40050540000090D00306
:1033400000080E4091034000E103400000E100E06E
:10335000D1034000000E0E400C010020A1054000EA
:10336000E1050020C9034000D9034000FD034000EF
:1033700049014000F000002000060E4018B9744BCF
:103380001A7804321A702420724B984718B9704B7F
:103390001A7808321A7000206E4B9847002840F0C7
:1033A00042846B4B1A7810321A7000F03CBC1A51F0
:1033B00001F8012F1A500433B3F5007FF7D1644CA4
:1033C0002078654B98472278644B5A70644E654C60
:1033D000654D41F2DC10B04723684BB92B6823B12F
:1033E0000122624B1A70624B984700232B6001E068
:1033F000013B23605F4B1B681BB900225E4B1A60C8
:1034000002E0013B5B4A13605C4BD3F80431FF2BB5
:1034100010D14FF4AF725A4B1A600122594B1A6007
:10342000AA22564BC3F804213C2057490022574B8F
:1034300098476BE0514BD3F80831FF2B0FD1012295
:10344000504B1A6078224E4B1A60AA224B4BC3F89D
:1034500008213F204C4900224C4B984756E0474BEF
:10346000D3F80C31FF2B13D14FF4AF72444B1A60D9
:103470000122444B1A60FF22454B1A70AA223F4B8F
:10348000C3F80C21442040490022404B98473DE0BE
:103490003A4BD3F81031FF2B10D14FF4AF72384BA9
:1034A0001A600122374B1A60AA22344BC3F810214C
:1034B000462035490022354B984727E02F4BD3F85B
:1034C0001431FF2B10D14FF4AF722D4B1A60012233
:1034D0002C4B1A60AA22294BC3F8142176202A49C2
:1034E00000222A4B984711E0244BD3F81831FF2BC8
:1034F0000CD14FF4AF72224B1A60FF22244B1A708A
:10350000AA221E4BC3F81821224B9847204B1B7848
:10351000FF2B15D11A4B1B6893B97822184B1A60F0
:10352000184B1B68012B02D11A4B98473AE0012235
:10353000144B1A603F2014490022144B984731E085
:103540000F4B1B68002B27DD013B0D4A136029E060
:10355000E1050020A1054000650A40000810002098
:10356000010000202001002004060020ED050020BD
:10357000FD094000FC000020000600200807002094
:10358000F405002014010020F8050020F108400097
:1035900004010020AD094000002B03DA4FF49672BD
:1035A000904B1A60904B9B6EFF2B05D1AA228E4B3D
:1035B0009A660B208D4B98478B4B9B6E2BB9AA229A
:1035C000894B9A660B208A4B9847874BDB6EFF2B03
:1035D00005D1AA22844BDA660C20844B9847824B93
:1035E000DB6E2BB9AA22804BDA660C20804B984701
:1035F0007D4B1B6FFF2B05D1AA227B4B1A671A202C
:103600007A4B9847784B1B6F2BB9AA22764B1A67D7
:103610001A20774B9847744B5B6FFF2B05D1AA227A
:10362000714B5A671920714B98476F4B5B6F2BB9E1
:10363000AA226D4B5A6719206D4B98476A4B1B6C39
:10364000FF2B03D0684B9B6FFF2B06D1664BAA2242
:103650001A649A671820654B9847634B1B6C13B12B
:10366000614B9B6F33B9604BAA221A649A6718208A
:103670005F4B98475C4B5B6CFF2B03D05A4BDB6F67
:10368000FF2B06D1584BAA225A64DA670D20574BFC
:103690009847554B5B6C13B1534BDB6F33B9524BAF
:1036A000AA225A64DA670D20514B98474E4BD3F843
:1036B0008030FF2B06D1AA224B4BC3F880200E206E
:1036C0004A4B9847484BD3F8803033B9AA22464B2F
:1036D000C3F880200E20464B9847434B9B6CFF2B32
:1036E00005D1AA22404B9A640820404B98473E4B94
:1036F0009B6C2BB9AA223C4B9A6408203C4B984700
:10370000394BDB6CFF2B05D1AA22374BDA6407203B
:10371000364B9847344BDB6C2BB9AA22324BDA6418
:103720000720334B9847304B1B6DFF2B05D1AA2246
:103730002D4B1A6506202D4B98472B4B1B6D2BB933
:10374000AA22294B1A650620294B9847264B5B6D08
:10375000FF2B05D1AA22244B5A650520234B9847FD
:10376000214B5B6D2BB9AA221F4B5A650520204BBC
:1037700098471D4BD3F8C030FF2B04D01A4BD3F819
:10378000A830FF2B08D1184BAA22C3F8C020C3F8D9
:10379000A8200320154B9847134BD3F8C0301BB11A
:1037A000114BD3F8A83043B90F4BAA22C3F8C0205D
:1037B000C3F8A82003200E4B98470B4BD3F8C43016
:1037C000FF2B04D0084BD3F8AC30FF2B12D1064BA3
:1037D000AA22C3F8C420C3F8AC201D20034B98478D
:1037E00008E000BFF405002008070020BD054000E8
:1037F000D9054000944BD3F8C4301BB1924BD3F899
:10380000AC3043B9904BAA22C3F8C420C3F8AC2013
:103810001D208E4B98478C4BD3F8C830FF2B04D01B
:10382000894BD3F8B030FF2B08D1874BAA22C3F8BD
:10383000C820C3F8B0201E20854B9847824BD3F890
:10384000C8301BB1804BD3F8B03043B97E4BAA22AD
:10385000C3F8C820C3F8B0201E207C4B98477A4B91
:10386000D3F89C30FF2B06D1AA22774BC3F89C20BB
:103870002C20774B9847744BD3F89C3033B9AA224D
:10388000714BC3F89C202C20704B98476E4BD3F89B
:103890009830FF2B06D1AA226B4BC3F898202A2020
:1038A0006B4B9847684BD3F8983033B9AA22664BD4
:1038B000C3F898202A20654B98471820654B9847F5
:1038C00020B9654B00221A749A7703E0624BFF22FD
:1038D0001A749A770D205F4B984720B95E4B0022EF
:1038E0005A74DA7703E05C4BFF225A74DA770820C7
:1038F000584B984718B90022574B9A7402E0FF22A0
:10390000554B9A740720534B984718B90022524BD5
:10391000DA7402E0FF22504BDA7406204D4B9847D0
:1039200018B900224C4B1A7502E0FF224A4B1A7557
:103930000520484B984718B90022474B5A7502E0BA
:10394000FF22454B5A750B20424B984718B900226D
:10395000414B9A7602E0FF223F4B9A760C203D4B7A
:10396000984718B900223C4BDA7602E0FF223A4B26
:10397000DA761A20374B984718B90022364B1A7757
:1039800002E0FF22344B1A771920324B984718B9BE
:103990000022314B5A7702E0FF222F4B5A770E203C
:1039A0002C4B984720B900222B4B83F8202003E0B2
:1039B000FF22294B83F820202A20264B984720B944
:1039C0000022254B83F8262003E0FF22224B83F8B8
:1039D00026202C201F4B984720B900221E4B83F82D
:1039E000272003E0FF221C4B83F827200320194BDC
:1039F000984730B9184B002283F8302083F82A20EA
:103A000005E0154BFF2283F8302083F82A201D2083
:103A1000104B984730B9104B002283F8312083F8BF
:103A20002B2005E00C4BFF2283F8312083F82B205C
:103A30001E20084B984788B9074B002283F8322094
:103A400083F82C200EE000BF08070020D9054000B5
:103A5000BD054000A105400008100020FF22754B65
:103A600083F82C20744B1B68642B02DC0133724AF0
:103A700013601020714B984718B100226E4B1A60EA
:103A80001CE06D4B1B68642B18D16A4B93F88020A7
:103A9000013283F8802093F88220013283F882205B
:103AA000674B684A116C1964916F9967916C9964BE
:103AB000D16CD964116D1965526D5A65624B1B68E2
:103AC000642B02DC0133604A136014205B4B98477F
:103AD00018B100225C4B1A600EE05B4B1B68642B34
:103AE0000AD1544B93F88120013283F8812093F856
:103AF0008320013283F883202B20504B984738B91C
:103B000000224C4B83F884202020504B984706E03D
:103B1000FF22484B83F8842020204D4B98472D20CE
:103B2000464B984738B90022424B83F88520212024
:103B3000464B984706E0FF223E4B83F88520212024
:103B4000434B9847434B1B68642B02DC0133414ACB
:103B500013600420394B984718B100223D4B1A607E
:103B600018E03C4B1B68642B14D1324B93F889202E
:103B7000013283F8892093F88620013283F8862069
:103B80002F4B0022C3F8C020C3F8C420C3F8A820DC
:103B9000C3F8AC20304B1B68642B02DC01332E4A87
:103BA00013601B20254B984718B100222A4B1A603E
:103BB0000EE0294B1B68642B0AD11E4B93F88A2018
:103BC000013283F88A2093F88720013283F8872016
:103BD0001C201A4B984730B9164B002283F88B20D3
:103BE00083F8882005E0134BFF2283F88B2083F8AD
:103BF00088202E20114B984750B900220D4B83F896
:103C00008C200E20114FB8471E20B847FFF7E1BBAC
:103C1000FF22084B83F88C200E200D4FB8471E2042
:103C2000B847FFF7D6BB0D490023054CAA2205482B
:103C3000FFF7BDBB0810002008010020A1054000CF
:103C400008070020080C00201C010020D9054000B6
:103C5000BD054000F80000200001002007100020F2
:103C600070B50F4E0F4D761BB61007D0043D0024E3
:103C7000013455F8043F9847A642F9D10A4E0B4D3E
:103C800000F098F8761BB61008D0043D00240134EB
:103C900055F8043F9847A642F9D170BD70BD00BFEA
:103CA000C03D4000C03D4000C83D4000C03D400018
:103CB000024B13B1024800F005B870470000000045
:103CC000D13C4000014600200246034600F018B8EF
:103CD00038B5094D094C641BA41018BF05EB8405C9
:103CE00005D0013C55F8043D9847002CF9D1BDE8BA
:103CF000384000F069B800BFD43D4000D83D4000D6
:103D0000F0B5274C85B026680746D6F84841002C08
:103D100040D065681F2D1EDD224818B94FF0FF30D6
:103D200005B0F0BD4FF4C870039102920193AFF358
:103D3000008003990446029A019B0028EED0D6F831
:103D400048510020256060600546C6F84841C4F827
:103D50008801C4F88C013FB96B1C002002356360F8
:103D600044F8251005B0F0BD0126AE4004EB8500F7
:103D7000C0F88820D4F88821022F42EA0602C4F84D
:103D80008821C0F80831E7D1D4F88C311E43C4F83B
:103D90008C61E1E706F5A674C6F84841B9E700BFB3
:103DA000B03D40000000000012050000430000008C
:103DB00028010020F8B500BFF8BC08BC9E4670473B
:103DC000B13C4000F5004000F8B500BFF8BC08BCAD
:083DD0009E467047D10040003F
:103DD800BFF35F8F0138FBD1704700BF4FF44072CB
:103DE8001F4B1A60A3F5C0631B6A13F0807F07D1CD
:103DF8001C4A1D4B1A621A46936E13F0010FFBD032
:103E08001A4A194B1A621A46936E13F4803FFBD074
:103E1800154B1A6B22F0030242F001021A631A468C
:103E2800936E13F0080FFBD0114A0F4B9A621A4693
:103E3800936E13F0020FFBD011220B4B1A631A4634
:103E4800936E13F0080FFBD01222074B1A631A4621
:103E5800936E13F0080FFBD0064A074B1A607047A1
:103E6800000A0E400908370000040E40090837010F
:103E7800033F1F200090D003F40000200C4B984211
:103E880003D800220B4B1A6070470B4B984204D89A
:103E98004FF48072074B1A607047084B984294BFE2
:103EA8004FF400724FF44072024B1A60704700BF23
:103EB8003F660301000A0E407FC3C9017FF937033B
:103EC8000100000000093D00650000002800000016
:103ED80065000000FEFF000065000000FF00000014
:103EE800FF00000001000000000100006500000064
:103EF800140000002000000000000000140400204E
:103F08007C040020E4040020000000000000000001
:103F18000000000000000000000000000000000099
:103F2800000000000000000000000000AC3D400060
:103F38000000000000000000000000000000000079
:103F48000000000000000000000000000000000069
:103F58000000000000000000000000000000000059
:103F68000000000000000000000000000000000049
:103F78000000000000000000000000000000000039
:103F88000000000000000000000000000000000029
:103F98000000000000000000000000000000000019
:103FA80001000000000000000E33CDAB34126DE6B6
:103FB800ECDE05000B00000000000000000000001F
:103FC80000000000000000000000000000000000E9
:103FD80000000000000000000000000000000000D9
:103FE80000000000000000000000000000000000C9
:103FF80000000000000000000000000000000000B9
:040000050040072D83
:00000001FF
