S01100004D6F64756C6F5F494F2E73726563AC
S214400000083100202907400025074000250740000A
S2144000102507400025074000250740000000000057
S214400020000000000000000000000000250740001F
S2144000302507400000000000250740002507400037
S21440004025074000250740002507400025074000BB
S21440005025074000250740002507400025074000AB
S214400060E5284000A12B400025074000290240001B
S2144000703D02400025074000250740002507400078
S214400080250740002507400025074000250740007B
S214400090250740002507400025074000250740006B
S2144000A0250740002507400025074000250740005B
S2144000B0250740002507400025074000250740004B
S2144000C0250740002507400025074000250740003B
S2144000D010B5054C237833B9044B13B10448AFF33D
S2144000E000800123237010BD500500200000000052
S2144000F0D43D4000084B10B51BB108480849AFF343
S21440010000800848036803B910BD074B002BFBD09E
S214400110BDE81040184700BF00000000D43D400036
S21440012054050020D43D400000000000014BC3F8B9
S2144001301401704700020E400B4619B109688160F1
S2144001405B68C3601AB1136883615368C3617047C4
S21440015021F0FE01C905C90D0162704710B50E4871
S2144001600E4B984700203E210D4B98470D4CA0471C
S2144001700028FCD00C4B98470C4A0D4B9A620D4C0D
S214400180A0470028FCD010200B4B98470B4B9847B5
S2144001900148024B984710BD0090D003AD000020A8
S2144001A0B90240000D0340001D034000033F1F20DE
S2144001B000040E402D03400051024000D907400085
S2144001C02DE9F84381468846124B984705464846EF
S2144001D0114B9847054013D0104C04F16006236835
S2144001E0434508D16168294205D0E36840469847B0
S2144001F0636825EA0305B44202D01034002DEED1E0
S214400200074B1B6823B1074B1B680BB14846984702
S214400210BDE8F8839D054000A1054000700500201C
S214400220FC0500206C05002008B502480B21024B57
S214400230984708BD000E0E40C101400008B5024870
S2144002400C21024B984708BD00100E40C1014000EB
S214400250184A136B23F0700318431063936E13F021
S214400260080F03D009E0013B03D11EE04FF40063C2
S21440027010498A6E12F0080FF5D00E4A136B23F021
S214400280030343F002031363906E10F0080004D09B
S21440029000207047013B03D109E04FF40063054955
S2144002A08A6E12F0080FF5D0704701207047012083
S2144002B0704700BF00040E4038B111490B6A114A1E
S2144002C01A40114B13430B6270470D4A136A23F4CE
S2144002D05C1323F0030343F45C1343F00103090269
S2144002E089B20B431362936E13F0010FFBD0044A9E
S2144002F0136A43F09B7343F480331362704700BF26
S21440030000040E40FCFFC8FE02003701024B986E08
S21440031000F48030704700BF00040E404FF000529B
S214400320014B9A62704700BF00040E40024B986E25
S21440033000F00200704700BF00040E4022281ED87E
S2144003401F280CD8114B9A69012383401A409342C8
S21440035017D0012383400D4A1361002070470B4B92
S214400360D3F808212038012383401A4093420AD00C
S21440037001238340054AC2F800310020704701201F
S2144003807047002070470020704700BF00040E40B2
S21440039010B4AC2303600B684A68B3FBF2F31B0946
S2144003A05C1E4FF6FE7294420AD803628B68436026
S2144003B040F20223C0F8203150230360002000E0C2
S2144003C001205DF8044B704740230360704700BF30
S2144003D010230360704700BF50230360704700BF80
S2144003E08160704740697047436913F0010F1DBF35
S2144003F083690B7000200120704700BF034B044AFE
S2144004000449884214BF10461846704700090E40FB
S21440041000070E4000080E404264B1F1C05F2FD086
S21440042007D8B1F1006F14D0B1F1805F1ED039B952
S2144004307047B1F1205F37D004D8B1F1005F29D0C2
S21440044042607047B1F1405F2ED0B1F1605F2BD073
S214400450F6E710B4016F046FD3432140194001679B
S214400460416F446F21400B4043671AE0036F1343CC
S2144004700367436F416F0B4023EA02034367DFE79E
S214400480036F016F0B4023EA02030367436F134376
S2144004904367D5E7036F13430367436F13434367CD
S2144004A0CEE742605DF8044B704700BF416412F0EF
S2144004B0010F14BF4166016612F00A0F14BF0162B5
S2144004C0416212F0020F02D0C0F8801004E012F031
S2144004D0080F18BFC0F8841041610160704700BF24
S2144004E010B44164019C0CB1416600E001660BB15A
S2144004F0016500E041650AB1016300E041630161C6
S21440050001605DF8044B7047F0B583B007460C4673
S21440051016461D46B1F1005F14D009D8B1F1805F90
S21440052010D0B1F1C05F0DD0B1F1006F2CD109E011
S214400530B1F1405F18D0B1F1605F15D0B1F1205FE6
S2144005400CD021E0384621463246114B984715F0EC
S214400550010F14BF7E663E66012016E011461A461D
S2144005600C4B9847012010E005F0010300933846F5
S2144005703146B4F1605F14BF00220122C5F3800308
S214400580054CA047012000E0002003B0F0BD00BFAE
S21440059019044000AD044000E1044000C06C7047C0
S2144005A0806C7047430903F5001303F207735B0240
S2144005B0DA6B00F01F0322FA03F000F001007047E8
S2144005C0430903F5001303F207735B0200F01F00B4
S2144005D0012282401A637047430903F5001303F271
S2144005E007735B0200F01F00012282405A63704787
S2144005F070B582B00D46430903F5001303F2077346
S2144006005C0201F0F043B3F1005F47D009D8B3F184
S214400610805F21D0B3F1C05F2FD0B3F1006F6FD1B0
S21440062009E0B3F1405F55D0B3F1605F52D0B3F10B
S214400630205F44D064E000F01F000126864020463C
S2144006404FF000613246304B984715F0010F14BF0B
S21440065066662666012054E000F01F0001268640AC
S21440066020464FF080513246274B984715F0010FF1
S21440067014BF66662666012043E000F01F00012690
S214400680864020464FF0C05132461F4B984715F0E3
S214400690010F14BF66662666012032E000F01F0098
S2144006A00126864020464FF000513246164B98476A
S2144006B015F0010F14BF66662666012021E000F0A3
S2144006C01F030126204606FA03F12A460F4B984799
S2144006D0304616E000F01F03012605F0605205EA9A
S2144006E006010091204606FA03F1B2F1605F14BF9E
S2144006F000220122C5F38003054CA047304600E0A7
S214400700002002B070BD00BF19044000AD04400098
S214400710E10440004FF40042014B5A60704700BF6E
S21440072050140E40FEE700BF08B51F4B1F4A9A42C2
S21440073003D01F4B1C4A9A4204D31E4B1E4A9A4271
S21440074010D31BE018490A1D1C4B9B1A23F00303C9
S2144007500433164A134452F8040B41F8040B9A42E9
S214400760F9D1EAE7164B174AD21A22F003021A4486
S214400770043B002143F8041B9342FBD1124B23F069
S214400780604222F07F0211498A6003F16043B3F56C
S214400790804F03D28B6843F000538B600C4B9847D6
S2144007A00C4B9847FEE700BF00000020D43D4000B9
S2144007B05005002008110020500500205305002059
S2144007C0540500200B1100200000400000ED00E022
S2144007D0653C4000893040003D4B1B6B03F00303F3
S2144007E0032B5DD8DFE803F0020E2B2B394B5B69F9
S2144007F013F0800F14BF4FF400424FF4FA42364BCA
S2144008001A604DE0324B1B6A13F0807F03D0334AA8
S214400810314B1A6044E0324A2F4B1A602C4B1B6A0D
S21440082003F07003102B02D0202B04D038E02D4A62
S214400830294B1A6034E0294A274B1A6030E0244B93
S2144008401B6A13F0807F03D0244A234B1A6012E0C1
S214400850234A214B1A601E4B1B6A03F07003102B71
S21440086002D0202B04D006E01E4A1B4B1A6002E042
S2144008701A4A194B1A60164B1B6B03F00303022BE4
S214400880134A07BF936A926AD36AD26A1248C3F37E
S2144008900A41036801FB0333D2B2B3FBF2F30360B1
S2144008A00B4B1B6B03F07003702B07D10A4A13687F
S2144008B00D49A1FB03135B0813607047044B1A6B8A
S2144008C00549C2F302120B68D3400B60704700BF65
S2144008D000040E4010140E40F4000020001BB70029
S2144008E000093D0000127A00ABAAAAAA30B58BB028
S2144008F012238DF8083002238DF8093042238DF8F4
S2144009000A308DF80B00002A42DD01390DF10B0349
S2144009100AA884181D3C11F8010F03F8010FA342E2
S214400920F9D1151D05320AAB2B44032103F8201CD0
S214400930002A0ADD0DF107000023194610F8014F82
S214400940614001339342F9DB00E000210AAB1A44D0
S2144009500B09303302F8203C0AAB2B4401F00F0160
S214400960303103F81E1C042203F81D2C0C480D4B96
S214400970984704464FF480710B4B984702AB009360
S21440098004350195204669460022084B984705E005
S21440099003238DF80C3005220425CBE70BB030BD81
S2144009A000060E40FD034000510140003901400062
S2144009B030B585B00C4B1B88ADF80C3000240B4B83
S2144009C01C600B480B4B984705464FF480710A4B0A
S2144009D0984703AB019302230293284601A9224677
S2144009E0064B984705B030BDA43D4000140100209A
S2144009F000060E40FD034000510140003901400012
S214400A00134B1B78802B21D030B583B0114CA123DB
S214400A10237015236370104B1B78A37083F0B403C8
S214400A205B42E370FC2323710C480D4B9847054608
S214400A304FF480710B4B984700940523019328464A
S214400A4069460022084B984703B030BD704700BF48
S214400A5008060020080B0020F105002000080E4084
S214400A60FD034000510140003901400010B44D28BC
S214400A7001F2EE86DFE810F04E008C00C90004025A
S214400A803E037B03B604EC05260760089A09D40AA1
S214400A900A0C3B0D700EAC0EEC0EEC0E070142023B
S214400AA0EC0EB903F4042E0664079E08D809120B10
S214400AB0470C7C0DEC0EEC0EEC0EEC0E4501800265
S214400AC0EC0EF70332056C06A607DC08160A4F0B39
S214400AD0840CB90DEC0EEC0EEC0EEC0E8301BE024F
S214400AE0EC0E35047005AA06E4071E09540A8C0B62
S214400AF0C10CF60DEC0EEC0EEC0EEC0EC601FC0234
S214400B00EC0E7304AE05E80622085C09960AC90B8B
S214400B10FE0C330EB94900230B64B94A13644B6488
S214400B2053648B649364CB64D3640B651365FF2472
S214400B304C6554658B669366CB66D3660B671367C6
S214400B404B675367C1F88040C2F88040C1F8983080
S214400B50C2F89830C1F89C30C2F89C30C1F8A83032
S214400B60C2F8A830C1F8AC30C2F8AC30C1F8B030EA
S214400B70C2F8B030C1F8C030C2F8C030C1F8C43096
S214400B80C2F8C430C1F8C830C2F8C83001F09FBEC1
S214400B909A4900230B649A4A13644B6453648B64EB
S214400BA09364CB64D3640B6513654B6553658B6662
S214400BB09366CB66D3660B6713674B675367C1F87C
S214400BC08030C2F88030C1F89830C2F89830C1F80A
S214400BD09C30C2F89C30C1F8A830C2F8A830C1F8A2
S214400BE0AC30C2F8AC30C1F8B030C2F8B030C1F862
S214400BF0C030C2F8C030C1F8C430C2F8C430C1F802
S214400C00C830C2F8C83001F062BE7C49FF248C6709
S214400C107B4A9467CC67D46700238B649364CB6429
S214400C20D3640B6513654B6553658B669366CB66DD
S214400C30D3660B6713674C675467C1F88030C2F8B9
S214400C408030C1F89830C2F89830C1F89C30C2F86D
S214400C509C30C1F8A830C2F8A830C1F8AC30C2F811
S214400C60AC30C1F8B030C2F8B030C1F8C030C2F8CD
S214400C70C030C1F8C430C2F8C430C1F8C830C2F879
S214400C80C83001F024BE5D49FF248C675C4A9467F7
S214400C90CC67D46700238B649364CB64D3640B65C2
S214400CA013654B6553658B669366CB66D3660C6758
S214400CB014674B675367C1F88030C2F88030C1F87C
S214400CC09830C2F89830C1F89C30C2F89C30C1F8D1
S214400CD0A830C2F8A830C1F8AC30C2F8AC30C1F881
S214400CE0B030C2F8B030C1F8C030C2F8C030C1F839
S214400CF0C430C2F8C430C1F8C830C2F8C83001F0B9
S214400D00E6BD3E49FF248C673D4A9467CC67D4676E
S214400D1000238B649364CB64D3640B6513654B6587
S214400D2053658B669366CC66D4660B6713674C67D1
S214400D305467C1F88030C2F88030C1F89830C2F8A5
S214400D409830C1F89C30C2F89C30C1F8A830C2F840
S214400D50A830C1F8AC30C2F8AC30C1F8B030C2F8F8
S214400D60B030C1F8C030C2F8C030C1F8C430C2F8A4
S214400D70C430C1F8C830C2F8C83001F0A8BD1F4919
S214400D80FF248C671E4A9467CC67D46700238B6425
S214400D909364CB64D3640B6513654B6553658B6670
S214400DA09366CC66D4660C6714674B675367C1F886
S214400DB08030C2F88030C1F89830C2F89830C1F818
S214400DC09C30C2F89C30C1F8A830C2F8A830C1F8B0
S214400DD0AC30C2F8AC30C1F8B030C2F8B030C1F870
S214400DE0C030C2F8C030C1F8C430C2F8C430C1F810
S214400DF0C830C2F8C83001F06ABD00BF08070020FE
S214400E00080C0020B949FF248C67B94A9467CC6720
S214400E10D46700238B649364CB64D3640B651365FB
S214400E204B6553658C669466CB66D3660C671467D1
S214400E304B675367C1F88030C2F88030C1F89830AD
S214400E40C2F89830C1F89C30C2F89C30C1F8A8303F
S214400E50C2F8A830C1F8AC30C2F8AC30C1F8B030F7
S214400E60C2F8B030C1F8C030C2F8C030C1F8C430A3
S214400E70C2F8C430C1F8C830C2F8C83001F027BD47
S214400E809A49FF240C649A4A14644C6454640023C0
S214400E908B649364CC64D4640C6514654B6553656D
S214400EA08B669366CB66D3660B6713674B67536751
S214400EB0C1F88030C2F88030C1F89830C2F8983017
S214400EC0C1F89C30C2F89C30C1F8A830C2F8A830AF
S214400ED0C1F8AC30C2F8AC30C1F8B030C2F8B0306F
S214400EE0C1F8C030C2F8C030C1F8C430C2F8C4300F
S214400EF0C1F8C830C2F8C83001F0E9BC7B49FF24CD
S214400F000C647B4A146400234B6453648B64936480
S214400F10CC64D4640B6513654C6554658B669366E8
S214400F20CB66D3660B6713674B675367C1F8803051
S214400F30C2F88030C1F89830C2F89830C1F89C307A
S214400F40C2F89C30C1F8A830C2F8A830C1F8AC301E
S214400F50C2F8AC30C1F8B030C2F8B030C1F8C030DA
S214400F60C2F8C030C1F8C430C2F8C430C1F8C83086
S214400F70C2F8C83001F0ABBC5C49FF240C645C4A44
S214400F8014644C6454648C6494640023CB64D364CB
S214400F900C6514654B6553658B669366CB66D36666
S214400FA00B6713674B675367C1F88030C2F88030D1
S214400FB0C1F89830C2F89830C1F89C30C2F89C30DE
S214400FC0C1F8A830C2F8A830C1F8AC30C2F8AC308E
S214400FD0C1F8B030C2F8B030C1F8C030C2F8C03046
S214400FE0C1F8C430C2F8C430C1F8C830C2F8C830FE
S214400FF001F06DBC3D49FF240C643D4A1464002357
S2144010004B6453648C649464CB64D3640B651365FF
S2144010104C6554658B669366CB66D3660B671367E1
S2144010204B675367C1F88030C2F88030C1F89830BB
S214401030C2F89830C1F89C30C2F89C30C1F8A8304D
S214401040C2F8A830C1F8AC30C2F8AC30C1F8B03005
S214401050C2F8B030C1F8C030C2F8C030C1F8C430B1
S214401060C2F8C430C1F8C830C2F8C83001F02FBC4E
S2144010701E4900230B641E4A13644B6453648B64FE
S2144010809364FF24CC64D4640B6513654C65546547
S2144010908B669366CB66D3660B6713674B6753675F
S2144010A0C1F88030C2F88030C1F89830C2F8983025
S2144010B0C1F89C30C2F89C30C1F8A830C2F8A830BD
S2144010C0C1F8AC30C2F8AC30C1F8B030C2F8B0307D
S2144010D0C1F8C030C2F8C030C1F8C430C2F8C4301D
S2144010E0C1F8C830C2F8C83001F0F1BB080700208C
S2144010F0080C0020B94900230B64B94A13644B64BA
S21440110053648B649364CB64D3640B6513654B65FF
S21440111053658B669366CB66D3660B6713674B67E0
S2144011205367C1F88030C2F88030C1F89830C2F8B2
S2144011309830C1F89C30C2F89C30C1F8A830C2F84C
S214401140A830C1F8AC30C2F8AC30C1F8B030C2F804
S214401150B030C1F8C030C2F8C030C1F8C430C2F8B0
S214401160C430C1F8C830C2F8C83001F0B0BB9B49A3
S21440117000230B649A4A13644B6453648B649364F1
S214401180CB64D3640B6513654B6553658B6693667A
S214401190CB66D366FF240C6714674B675367C1F86A
S2144011A08030C2F88030C1F89830C2F89830C1F824
S2144011B09C30C2F89C30C1F8A830C2F8A830C1F8BC
S2144011C0AC30C2F8AC30C1F8B030C2F8B030C1F87C
S2144011D0C030C2F8C030C1F8C430C2F8C430C1F81C
S2144011E0C830C2F8C83001F072BB7C4900230B649B
S2144011F07B4A13644B6453648B649364CB64D364BC
S2144012000B6513654B6553658B669366CB66D366F5
S2144012100B671367FF244C675467C1F88030C2F8E9
S2144012208030C1F89830C2F89830C1F89C30C2F887
S2144012309C30C1F8A830C2F8A830C1F8AC30C2F82B
S214401240AC30C1F8B030C2F8B030C1F8C030C2F8E7
S214401250C030C1F8C430C2F8C430C1F8C830C2F893
S214401260C83001F034BB5D4900230B645C4A13640C
S2144012704B6453648B649364CB64D3640B6513658F
S2144012804B655365FF248C669466CB66D3660C67C5
S21440129014674B675367C1F88030C2F88030C1F896
S2144012A09830C2F89830C1F89C30C2F89C30C1F8EB
S2144012B0A830C2F8A830C1F8AC30C2F8AC30C1F89B
S2144012C0B030C2F8B030C1F8C030C2F8C030C1F853
S2144012D0C430C2F8C430C1F8C830C2F8C83001F0D3
S2144012E0F6BA3E4900230B643D4A13644B6453648C
S2144012F08B649364CB64D3640B6513654B6553650D
S214401300FF248C669466CB66D3660B6713674C6780
S2144013105467C1F88030C2F88030C1F89830C2F8BF
S2144013209830C1F89C30C2F89C30C1F8A830C2F85A
S214401330A830C1F8AC30C2F8AC30C1F8B030C2F812
S214401340B030C1F8C030C2F8C030C1F8C430C2F8BE
S214401350C430C1F8C830C2F8C83001F0B8BA1F4926
S21440136000230B641E4A13644B6453648B6493647B
S214401370CB64D3640B6513654B6553658B66936688
S214401380FF24CC66D4660B6713674C675467C1F876
S2144013908030C2F88030C1F89830C2F89830C1F832
S2144013A09C30C2F89C30C1F8A830C2F8A830C1F8CA
S2144013B0AC30C2F8AC30C1F8B030C2F8B030C1F88A
S2144013C0C030C2F8C030C1F8C430C2F8C430C1F82A
S2144013D0C830C2F8C83001F07ABA00BF080700200B
S2144013E0080C0020B949FF240C64B94A14644C64C4
S2144013F0546400238B649364CC64D4640C65146595
S2144014004B6553658B669366CB66D3660B671367EF
S2144014104B675367C1F88030C2F88030C1F89830C7
S214401420C2F89830C1F89C30C2F89C30C1F8A83059
S214401430C2F8A830C1F8AC30C2F8AC30C1F8B03011
S214401440C2F8B030C1F8C030C2F8C030C1F8C430BD
S214401450C2F8C430C1F8C830C2F8C83001F037BA54
S2144014609A49FF240C649A4A146400234B645364DC
S2144014708B649364CC64D4640B6513654C65546587
S2144014808B669366CB66D3660B6713674B6753676B
S214401490C1F88030C2F88030C1F89830C2F8983031
S2144014A0C1F89C30C2F89C30C1F8A830C2F8A830C9
S2144014B0C1F8AC30C2F8AC30C1F8B030C2F8B03089
S2144014C0C1F8C030C2F8C030C1F8C430C2F8C43029
S2144014D0C1F8C830C2F8C83001F0F9B97B49FF24DA
S2144014E00C647B4A14644C6454648C649464002397
S2144014F0CB64D3640C6514654B6553658B66936605
S214401500CB66D3660B6713674B675367C1F880306B
S214401510C2F88030C1F89830C2F89830C1F89C3094
S214401520C2F89C30C1F8A830C2F8A830C1F8AC3038
S214401530C2F8AC30C1F8B030C2F8B030C1F8C030F4
S214401540C2F8C030C1F8C430C2F8C430C1F8C830A0
S214401550C2F8C83001F0BBB95C49FF240C645C4A51
S214401560146400234B6453648C649464CB64D364E7
S2144015700B6513654C6554658B669366CB66D36680
S2144015800B6713674B675367C1F88030C2F88030EB
S214401590C1F89830C2F89830C1F89C30C2F89C30F8
S2144015A0C1F8A830C2F8A830C1F8AC30C2F8AC30A8
S2144015B0C1F8B030C2F8B030C1F8C030C2F8C03060
S2144015C0C1F8C430C2F8C430C1F8C830C2F8C83018
S2144015D001F07DB93D4900230B643D4A13644B64DA
S2144015E053648B649364FF24CC64D4640B651365A6
S2144015F04C6554658B669366CB66D3660B671367FC
S2144016004B675367C1F88030C2F88030C1F89830D5
S214401610C2F89830C1F89C30C2F89C30C1F8A83067
S214401620C2F8A830C1F8AC30C2F8AC30C1F8B0301F
S214401630C2F8B030C1F8C030C2F8C030C1F8C430CB
S214401640C2F8C430C1F8C830C2F8C83001F03FB95B
S2144016501E49FF240C641E4A14644C6454640023E0
S2144016608B649364CC64D4640C6514654B65536595
S2144016708B669366CB66D3660B6713674B67536779
S214401680C1F88030C2F88030C1F89830C2F898303F
S214401690C1F89C30C2F89C30C1F8A830C2F8A830D7
S2144016A0C1F8AC30C2F8AC30C1F8B030C2F8B03097
S2144016B0C1F8C030C2F8C030C1F8C430C2F8C43037
S2144016C0C1F8C830C2F8C83001F001B90807002098
S2144016D0080C0020B949FF240C64B94A146400235E
S2144016E04B6453648B649364CC64D4640B65136519
S2144016F04C6554658B669366CB66D3660B671367FB
S2144017004B675367C1F88030C2F88030C1F89830D4
S214401710C2F89830C1F89C30C2F89C30C1F8A83066
S214401720C2F8A830C1F8AC30C2F8AC30C1F8B0301E
S214401730C2F8B030C1F8C030C2F8C030C1F8C430CA
S214401740C2F8C430C1F8C830C2F8C83001F0BFB8DB
S2144017509A4900230B649A4A13644B645364FF24EB
S2144017608C649464CB64D3640C6514654B65536594
S2144017708B669366CB66D3660B6713674B67536778
S214401780C1F88030C2F88030C1F89830C2F898303E
S214401790C1F89C30C2F89C30C1F8A830C2F8A830D6
S2144017A0C1F8AC30C2F8AC30C1F8B030C2F8B03096
S2144017B0C1F8C030C2F8C030C1F8C430C2F8C43036
S2144017C0C1F8C830C2F8C83001F081B87B49FF2460
S2144017D00C647B4A14644C6454648C6494640023A4
S2144017E0CB64D3640B6513654C6554658B66936612
S2144017F0CB66D3660B6713674B675367C1F8803079
S214401800C2F88030C1F89830C2F89830C1F89C30A1
S214401810C2F89C30C1F8A830C2F8A830C1F8AC3045
S214401820C2F8AC30C1F8B030C2F8B030C1F8C03001
S214401830C2F8C030C1F8C430C2F8C430C1F8C830AD
S214401840C2F8C83001F043B85C4900230B645C4AD8
S21440185013644B6453648B649364FF24CC64D464F5
S2144018600B6513654C6554658B669366CB66D3668D
S2144018700B6713674B675367C1F88030C2F88030F8
S214401880C1F89830C2F89830C1F89C30C2F89C3005
S214401890C1F8A830C2F8A830C1F8AC30C2F8AC30B5
S2144018A0C1F8B030C2F8B030C1F8C030C2F8C0306D
S2144018B0C1F8C430C2F8C430C1F8C830C2F8C83025
S2144018C001F005B83D49FF240C643D4A14644C645D
S2144018D0546400238B649364CC64D4640C651465B0
S2144018E04B6553658B669366CB66D3660B6713670B
S2144018F04B675367C1F88030C2F88030C1F89830E3
S214401900C2F89830C1F89C30C2F89C30C1F8A83074
S214401910C2F8A830C1F8AC30C2F8AC30C1F8B0302C
S214401920C2F8B030C1F8C030C2F8C030C1F8C430D8
S214401930C2F8C430C1F8C830C2F8C83000F0C7BFDB
S2144019401E49FF240C641E4A146400234B645364EF
S2144019508B649364CC64D4640B6513654C655465A2
S2144019608B669366CB66D3660B6713674B67536786
S214401970C1F88030C2F88030C1F89830C2F898304C
S214401980C1F89C30C2F89C30C1F8A830C2F8A830E4
S214401990C1F8AC30C2F8AC30C1F8B030C2F8B030A4
S2144019A0C1F8C030C2F8C030C1F8C430C2F8C43044
S2144019B0C1F8C830C2F8C83000F089BF0807002018
S2144019C0080C0020B94900230B64B94A13644B64E1
S2144019D05364FF248C649464CB64D3640C651465B0
S2144019E04B6553658B669366CB66D3660B6713670A
S2144019F04B675367C1F88030C2F88030C1F89830E2
S214401A00C2F89830C1F89C30C2F89C30C1F8A83073
S214401A10C2F8A830C1F8AC30C2F8AC30C1F8B0302B
S214401A20C2F8B030C1F8C030C2F8C030C1F8C430D7
S214401A30C2F8C430C1F8C830C2F8C83000F047BF5A
S214401A409A49FF240C649A4A146400234B645364F6
S214401A508C649464CB64D3640B6513654C655465A1
S214401A608B669366CB66D3660B6713674B67536785
S214401A70C1F88030C2F88030C1F89830C2F898304B
S214401A80C1F89C30C2F89C30C1F8A830C2F8A830E3
S214401A90C1F8AC30C2F8AC30C1F8B030C2F8B030A3
S214401AA0C1F8C030C2F8C030C1F8C430C2F8C43043
S214401AB0C1F8C830C2F8C83000F009BF7B490023DF
S214401AC00B647B4A13644B6453648B649364FF24B7
S214401AD0CC64D4640B6513654C6554658B6693661D
S214401AE0CB66D3660B6713674B675367C1F8803086
S214401AF0C2F88030C1F89830C2F89830C1F89C30AF
S214401B00C2F89C30C1F8A830C2F8A830C1F8AC3052
S214401B10C2F8AC30C1F8B030C2F8B030C1F8C0300E
S214401B20C2F8C030C1F8C430C2F8C430C1F8C830BA
S214401B30C2F8C83000F0CBBE5C49FF240C645C4A57
S214401B4014644C64546400238B649364CC64D464FF
S214401B500C6514654B6553658B669366CB66D3669A
S214401B600B6713674B675367C1F88030C2F8803005
S214401B70C1F89830C2F89830C1F89C30C2F89C3012
S214401B80C1F8A830C2F8A830C1F8AC30C2F8AC30C2
S214401B90C1F8B030C2F8B030C1F8C030C2F8C0307A
S214401BA0C1F8C430C2F8C430C1F8C830C2F8C83032
S214401BB000F08DBE3D49FF240C643D4A146400236A
S214401BC04B6453648B649364CC64D4640B65136534
S214401BD04C6554658B669366CB66D3660B67136716
S214401BE04B675367C1F88030C2F88030C1F89830F0
S214401BF0C2F89830C1F89C30C2F89C30C1F8A83082
S214401C00C2F8A830C1F8AC30C2F8AC30C1F8B03039
S214401C10C2F8B030C1F8C030C2F8C030C1F8C430E5
S214401C20C2F8C430C1F8C830C2F8C83000F04FBE61
S214401C301E4900230B641E4A13644B645364FF24FE
S214401C408C649464CB64D3640C6514654B655365AF
S214401C508B669366CB66D3660B6713674B67536793
S214401C60C1F88030C2F88030C1F89830C2F8983059
S214401C70C1F89C30C2F89C30C1F8A830C2F8A830F1
S214401C80C1F8AC30C2F8AC30C1F8B030C2F8B030B1
S214401C90C1F8C030C2F8C030C1F8C430C2F8C43051
S214401CA0C1F8C830C2F8C83000F011BE080700209E
S214401CB0080C0020B949FF240C64B94A1464002378
S214401CC04B6453648C649464CB64D3640B65136533
S214401CD04C6554658B669366CB66D3660B67136715
S214401CE04B675367C1F88030C2F88030C1F89830EF
S214401CF0C2F89830C1F89C30C2F89C30C1F8A83081
S214401D00C2F8A830C1F8AC30C2F8AC30C1F8B03038
S214401D10C2F8B030C1F8C030C2F8C030C1F8C430E4
S214401D20C2F8C430C1F8C830C2F8C83000F0CFBDE1
S214401D309A4900230B649A4A13644B6453648B6439
S214401D409364FF24CC64D4640B6513654C6554657A
S214401D508B669366CB66D3660B6713674B67536792
S214401D60C1F88030C2F88030C1F89830C2F8983058
S214401D70C1F89C30C2F89C30C1F8A830C2F8A830F0
S214401D80C1F8AC30C2F8AC30C1F8B030C2F8B030B0
S214401D90C1F8C030C2F8C030C1F8C430C2F8C43050
S214401DA0C1F8C830C2F8C83000F091BD7B49FF2466
S214401DB00C647B4A14644C64546400238B649364C0
S214401DC0CC64D4640C6514654B6553658B6693662A
S214401DD0CB66D3660B6713674B675367C1F8803093
S214401DE0C2F88030C1F89830C2F89830C1F89C30BC
S214401DF0C2F89C30C1F8A830C2F8A830C1F8AC3060
S214401E00C2F8AC30C1F8B030C2F8B030C1F8C0301B
S214401E10C2F8C030C1F8C430C2F8C430C1F8C830C7
S214401E20C2F8C83000F053BD5C49FF240C645C4ADD
S214401E30146400234B6453648B649364CC64D4640E
S214401E400B6513654C6554658B669366CB66D366A7
S214401E500B6713674B675367C1F88030C2F8803012
S214401E60C1F89830C2F89830C1F89C30C2F89C301F
S214401E70C1F8A830C2F8A830C1F8AC30C2F8AC30CF
S214401E80C1F8B030C2F8B030C1F8C030C2F8C03087
S214401E90C1F8C430C2F8C430C1F8C830C2F8C8303F
S214401EA000F015BD3D4900230B643D4A13644B6466
S214401EB05364FF248C649464CB64D3640C651465CB
S214401EC04B6553658B669366CB66D3660B67136725
S214401ED04B675367C1F88030C2F88030C1F89830FD
S214401EE0C2F89830C1F89C30C2F89C30C1F8A8308F
S214401EF0C2F8A830C1F8AC30C2F8AC30C1F8B03047
S214401F00C2F8B030C1F8C030C2F8C030C1F8C430F2
S214401F10C2F8C430C1F8C830C2F8C83000F0D7BCE8
S214401F201E49FF240C641E4A146400234B64536409
S214401F308C649464CB64D3640B6513654C655465BC
S214401F408B669366CB66D3660B6713674B675367A0
S214401F50C1F88030C2F88030C1F89830C2F8983066
S214401F60C1F89C30C2F89C30C1F8A830C2F8A830FE
S214401F70C1F8AC30C2F8AC30C1F8B030C2F8B030BE
S214401F80C1F8C030C2F8C030C1F8C430C2F8C4305E
S214401F90C1F8C830C2F8C83000F099BC0807002025
S214401FA0080C0020B74900230B64B74A13644B64FF
S214401FB053648B649364FF24CC64D4640B651365CC
S214401FC04C6554658B669366CB66D3660B67136722
S214401FD04B675367C1F88030C2F88030C1F89830FC
S214401FE0C2F89830C1F89C30C2F89C30C1F8A8308E
S214401FF0C2F8A830C1F8AC30C2F8AC30C1F8B03046
S214402000C2F8B030C1F8C030C2F8C030C1F8C430F1
S214402010C2F8C430C1F8C830C2F8C83000F057BC67
S2144020209849FF238B67984A9367CB67D3678B663D
S2144020309366CB66D3660B67136700234B6753677D
S2144020408B649364CB64D3640B6513654B655365AF
S214402050C1F88030C2F88030C1F89830C2F8983065
S214402060C1F89C30C2F89C30C1F8A830C2F8A830FD
S214402070C1F8AC30C2F8AC30C1F8B030C2F8B030BD
S214402080C1F8C030C2F8C030C1F8C430C2F8C4305D
S214402090C1F8C830C2F8C83000F019BC7949FF24EE
S2144020A08C67794A9467CC67D4678C669466CC66AE
S2144020B0D46600230B6713674C6754678B6493643E
S2144020C0CB64D3640B6513654B655365C1F88030AC
S2144020D0C2F88030C1F89830C2F89830C1F89C30C9
S2144020E0C2F89C30C1F8A830C2F8A830C1F8AC306D
S2144020F0C2F8AC30C1F8B030C2F8B030C1F8C03029
S214402100C2F8C030C1F8C430C2F8C430C1F8C830D4
S214402110C2F8C830DBE35B49FF248C675A4A9467B1
S214402120CC67D4678C6694660023CB66D3660C6710
S21440213014674B6753678B649364CB64D3640B65B7
S21440214013654B655365C1F88030C2F88030C1F8DE
S2144021509830C2F89830C1F89C30C2F89C30C1F82C
S214402160A830C2F8A830C1F8AC30C2F8AC30C1F8DC
S214402170B030C2F8B030C1F8C030C2F8C030C1F894
S214402180C430C2F8C430C1F8C830C2F8C8309EE384
S2144021903C49FF248C673C4A9467CC67D4678C667E
S2144021A094660023CB66D3660B6713674C67546709
S2144021B08B649364CB64D3640B6513654B6553653E
S2144021C0C1F88030C2F88030C1F89830C2F89830F4
S2144021D0C1F89C30C2F89C30C1F8A830C2F8A8308C
S2144021E0C1F8AC30C2F8AC30C1F8B030C2F8B0304C
S2144021F0C1F8C030C2F8C030C1F8C430C2F8C430EC
S214402200C1F8C830C2F8C83061E31E49FF248C6765
S2144022101D4A9467CC67D46700238B669366CC666A
S214402220D4660B6713674C6754678B649364CB64C0
S214402230D3640B6513654B655365C1F88030C2F8AF
S2144022408030C1F89830C2F89830C1F89C30C2F857
S2144022509C30C1F8A830C2F8A830C1F8AC30C2F8FB
S214402260AC30C1F8B030C2F8B030C1F8C030C2F8B7
S214402270C030C1F8C430C2F8C430C1F8C830C2F863
S214402280C83024E308070020080C0020B649FF2386
S2144022908B67B64A9367CB67D3678B669366CB6686
S2144022A0D3660B67136700234B6753678B6493644F
S2144022B0CB64D3640B6513654B655365C1F88030BA
S2144022C0C2F88030C1F89830C2F89830C1F89C30D7
S2144022D0C2F89C30C1F8A830C2F8A830C1F8AC307B
S2144022E0C2F8AC30C1F8B030C2F8B030C1F8C03037
S2144022F0C2F8C030C1F8C430C2F8C430C1F8C830E3
S214402300C2F8C830E3E29849FF248C67974A94673E
S214402310CC67D4678C669466CC66D46600230B671D
S21440232013674C6754678B649364CB64D3640B65C4
S21440233013654B655365C1F88030C2F88030C1F8EC
S2144023409830C2F89830C1F89C30C2F89C30C1F83A
S214402350A830C2F8A830C1F8AC30C2F8AC30C1F8EA
S214402360B030C2F8B030C1F8C030C2F8C030C1F8A2
S214402370C430C2F8C430C1F8C830C2F8C830A6E28B
S2144023807949FF248C67794A9467CC67D4678C6612
S21440239094660023CB66D3660C6714674B67536717
S2144023A08B649364CB64D3640B6513654B6553654C
S2144023B0C1F88030C2F88030C1F89830C2F8983002
S2144023C0C1F89C30C2F89C30C1F8A830C2F8A8309A
S2144023D0C1F8AC30C2F8AC30C1F8B030C2F8B0305A
S2144023E0C1F8C030C2F8C030C1F8C430C2F8C430FA
S2144023F0C1F8C830C2F8C83069E25B49FF248C6730
S2144024005A4A9467CC67D4678C6694660023CB663A
S214402410D3660B6713674C6754678B649364CB64CF
S214402420D3640B6513654B655365C1F88030C2F8BD
S2144024308030C1F89830C2F89830C1F89C30C2F865
S2144024409C30C1F8A830C2F8A830C1F8AC30C2F809
S214402450AC30C1F8B030C2F8B030C1F8C030C2F8C5
S214402460C030C1F8C430C2F8C430C1F8C830C2F871
S214402470C8302CE23C49FF248C673C4A9467CC67C2
S214402480D46700238B669366CC66D4660B67136767
S2144024904C6754678B649364CB64D3640B65136555
S2144024A04B655365C1F88030C2F88030C1F898302B
S2144024B0C2F89830C1F89C30C2F89C30C1F8A830B9
S2144024C0C2F8A830C1F8AC30C2F8AC30C1F8B03071
S2144024D0C2F8B030C1F8C030C2F8C030C1F8C4301D
S2144024E0C2F8C430C1F8C830C2F8C830EFE11E495F
S2144024F0FF238B671D4A9367CB67D3678B669366CC
S214402500CB66D3660B67136700234B6753678B64B2
S2144025109364CB64D3640B6513654B655365C1F810
S2144025208030C2F88030C1F89830C2F89830C1F890
S2144025309C30C2F89C30C1F8A830C2F8A830C1F828
S214402540AC30C2F8AC30C1F8B030C2F8B030C1F8E8
S214402550C030C2F8C030C1F8C430C2F8C430C1F888
S214402560C830C2F8C830B2E108070020080C002086
S214402570B549FF248C67B54A9467CC67D4678C66A8
S2144025809466CC66D46600230B6713674C67546723
S2144025908B649364CB64D3640B6513654B6553655A
S2144025A0C1F88030C2F88030C1F89830C2F8983010
S2144025B0C1F89C30C2F89C30C1F8A830C2F8A830A8
S2144025C0C1F8AC30C2F8AC30C1F8B030C2F8B03068
S2144025D0C1F8C030C2F8C030C1F8C430C2F8C43008
S2144025E0C1F8C830C2F8C83071E19749FF248C67FB
S2144025F0964A9467CC67D4678C6694660023CB660D
S214402600D3660C6714674B6753678B649364CB64DD
S214402610D3640B6513654B655365C1F88030C2F8CB
S2144026208030C1F89830C2F89830C1F89C30C2F873
S2144026309C30C1F8A830C2F8A830C1F8AC30C2F817
S214402640AC30C1F8B030C2F8B030C1F8C030C2F8D3
S214402650C030C1F8C430C2F8C430C1F8C830C2F87F
S214402660C83034E17849FF248C67784A9467CC6751
S214402670D4678C6694660023CB66D3660B67136775
S2144026804C6754678B649364CB64D3640B65136563
S2144026904B655365C1F88030C2F88030C1F8983039
S2144026A0C2F89830C1F89C30C2F89C30C1F8A830C7
S2144026B0C2F8A830C1F8AC30C2F8AC30C1F8B0307F
S2144026C0C2F8B030C1F8C030C2F8C030C1F8C4302B
S2144026D0C2F8C430C1F8C830C2F8C830F7E05A492A
S2144026E0FF248C67594A9467CC67D46700238B666F
S2144026F09366CC66D4660B6713674C6754678B64E7
S2144027009364CB64D3640B6513654B655365C1F81E
S2144027108030C2F88030C1F89830C2F89830C1F89E
S2144027209C30C2F89C30C1F8A830C2F8A830C1F836
S214402730AC30C2F8AC30C1F8B030C2F8B030C1F8F6
S214402740C030C2F8C030C1F8C430C2F8C430C1F896
S214402750C830C2F8C830BAE03B4900230B643B4A55
S21440276013644B6453648B649364CB64D3640B658B
S21440277013654B6553658B669366CB66D3660B676E
S21440278013674B675367C1F88030C2F88030C1F892
S2144027909830C2F89830C1F89C30C2F89C30C1F8E6
S2144027A0A830C2F8A830C1F8AC30C2F8AC30C1F896
S2144027B0B030C2F8B030C1F8C030C2F8C030C1F84E
S2144027C0C430C2F8C430C1F8C830C2F8C8307EE061
S2144027D01D4900230B641D4A13644B6453648B6489
S2144027E09364CB64D3640B6513654B6553658B6606
S2144027F09366CB66D3660B6713674B675367C1F820
S2144028008030C2F88030C1F89830C2F89830C1F8AD
S2144028109C30C2F89C30C1F8A830C2F8A830C1F845
S214402820AC30C2F8AC30C1F8B030C2F8B030C1F805
S214402830C030C2F8C030C1F8C430C2F8C430C1F8A5
S214402840C830C2F8C83042E008070020080C002014
S214402850214900230B64214A13644B6453648B6400
S2144028609364CB64D3640B6513654B6553658B6685
S2144028709366CB66D3660B6713674B6753678B6766
S2144028809367CB67D367C1F88030C2F88030C1F811
S2144028909830C2F89830C1F89C30C2F89C30C1F8E5
S2144028A0A830C2F8A830C1F8AC30C2F8AC30C1F895
S2144028B0B030C2F8B030C1F8C030C2F8C030C1F84D
S2144028C0C430C2F8C430C1F8C830C2F8C830044B6F
S2144028D058705DF8044B704708070020080C00202D
S2144028E00810002010B582B02822984B1A609848ED
S2144028F0984B984710F0010F00F0268194480DF150
S2144029000701954B984795490A68531C0B609DF8FC
S214402910071093488154012B23D115290AD142220E
S214402920904B1A70904B98470023904A1360904AF9
S214402930136016E006290AD10022884B1A60FF234E
S2144029408C4A13708C4A13708C4B984709E01029B8
S21440295007D10022814B1A60FF23864A1370864AAD
S21440296013707E4B1B68022B12D1FF22844B1A60D9
S2144029709DF80730422B0BD0794B1B78022B07D0A3
S2144029800022764B1A60FF237A4A13707A4A1370F5
S214402990724B1B68032B04D19DF80710754A1170C3
S2144029A00DE0042B04D19DF80710734A11700DE01A
S2144029B0052B04D19DF80720724B1A7010E0062BA9
S2144029C004D19DF80720704B1A7009E0102B07DDE4
S2144029D00022624B1A60FF23664A1370664A1370E1
S2144029E05E4B1A68062A40F3AF809DF80730042BEA
S2144029F040F0AA80604B1B78522B04D0542B0BD04F
S214402A00302B31D111E04322564B1A7000234F4AE7
S214402A101360524A136097E04422524B1A700023C8
S214402A204A4A13604D4A13608EE0131F4C49C95CF6
S214402A30032908D042224B4B1A700023434A1360A6
S214402A40464A136080E0002050490860834214DD07
S214402A504F4B1A44043A014613F8010F4140934243
S214402A60FAD14A4B196008E042223E4B1A700023C6
S214402A70364A1360394A136066E0384B1B68002BB1
S214402A8062D03C4B1B783F2B04D0762B50D03C2B4F
S214402A905AD126E03B4B1B783E4A82F89030302B8A
S214402AA005D120203C4CA0472120A0474CE0312BAC
S214402AB006D12020384B98472120384B984743E092
S214402AC0322B06D12020354B98472120324B984751
S214402AD03AE0332B38D12020304CA0472120A04765
S214402AE032E0254B1B78302B04D03022294B83F81C
S214402AF0902029E0234B1B78302B04D13122254BE4
S214402B0083F8902020E0312B04D13122214B83F8EA
S214402B10902019E0322B04D130221E4B83F89020AF
S214402B2012E0382B10D130221A4B83F890200BE05D
S214402B30114B1B78302B07D1124B1B78302B03D10F
S214402B403022144B83F8902002B010BDFC000020C9
S214402B5000060E40E5034000E90340000006002062
S214402B6008060020F1050020010A4000240100204C
S214402B700406002005010020E0050020B1094000C1
S214402B8018010020E2050020F0050020E4050020A2
S214402B900706002008100020D9054000C105400067
S214402BA0F0B585B01422A04B1A60A048A04B9847B9
S214402BB010F0010F00F041829C480DF10F019D4B33
S214402BC098479D490A68531C0B609DF80F509B49D7
S214402BD08D54012B10D19A4B1D60FF22994B1A60E1
S214402BE0994B1B689D4207D0802D05D00022924B02
S214402BF01A602022954B1A708F4B1B68012B00F0F1
S214402C000F82904A12680432934203DA8C490A686B
S214402C106A400A60022B0FD1102D04D0A5F11A038A
S214402C20DBB2012B02D8894B1D7005E00022824B97
S214402C301A602022854B1A707F4B1E68032E02D1E5
S214402C40834B1D6008E0042E02D17E4B1D6003E0DE
S214402C50052E04BF7F4B1D607C4B1B781A2B00F063
S214402C60C2801B2B00F06C81102B40F0CB81734B45
S214402C701B78802B00F0C681062E0BD1FC2D09D088
S214402C800222754B1A70754B98470023664A1360AC
S214402C90694A1360694A1178537859409378594085
S214402CA0D3784B40664A1360634A1268062A40F05F
S214402CB0A9815B42DBB2614A1279934200F0B3814C
S214402CC00322654B1A70654B98475B4B1B68062B77
S214402CD040F098819DF80F30FC2B40F09381584B84
S214402CE01B685B42DBB2554A1279934274D1584B0B
S214402CF01A68544BD3F800E082EA0E0383F0B1031F
S214402D00DBB24F490B60564BA12119701021597008
S214402D109A7083F803E00EF10403042B3EDD13465D
S214402D20474A15684F4C1C444F4E0EEB03074F4A1C
S214402D3000214FF00F0C14F8010F06F8010F013375
S214402D40454023F00200812804BF82F8801082F8B4
S214402D508210822B01D0842B03D182F8811082F816
S214402D6083108A2B01D0872B03D182F8891082F8F2
S214402D7086108B2B01D0882B03D182F88A1082F8DC
S214402D808710912B08BF82F890C0BB42D3D10EF17A
S214402D90040E2F4B1F602A4B1D6001E04FF0040EBF
S214402DA02F4C274B1B685B4204F80E30A644FC238E
S214402DB08EF801301D482E4B984705464FF48071DB
S214402DC02C4B984701941F4B1B68063302932846AA
S214402DD001A90022284B984720221C4B1A7000223B
S214402DE0154B1A600EE1154B1B78154A1360154AB1
S214402DF01768381D01280ADD104A012412F8011F01
S214402E004B4001348442F9DB0D4A136000E0012454
S214402E100637BE423FD1FC2D30D002220E4B1A70F0
S214402E200E4B984737E000BF2401002000080E40B4
S214402E30E5034000E90340000406002008060020A1
S214402E40EC050020180100200C0100201C01002089
S214402E50E805002010010020F1050020010A40008E
S214402E60080B0020071000200B0B00200810002045
S214402E70FD0340005101400039014000704B1B6883
S214402E805B42DBB26F4A125C934204D003226E4B25
S214402E901A706E4B98476E4B1A68911D6D4B1B68A7
S214402EA0994240F0CA809DF80F30FC2B40F0B1802C
S214402EB0634B1B685B42DBB26249095D8B4240F064
S214402EC0A880654B196853187F2B33DC002A0DDD2C
S214402ED0624B01F180400138614901EB80011A44A0
S214402EE013F8010F41F8040F9342F9D120225D4BAD
S214402EF01A70544B1B78802B00F084805A4CA123C8
S214402F002370062363700025A5705923E370FC23C5
S214402F1023715648564B984706464FF48071554B9A
S214402F209847019405230293304601A92A46524BFE
S214402F30984767E00422444B1A70444B984761E038
S214402F40404B1B78802B5DD0072E0BD1FC2D09D033
S214402F5002223D4B1A703D4B98470023474A136068
S214402F603C4A1360374B19785A7851409A7851400A
S214402F70DA784A401B795340314A1360354A126822
S214402F80072A3FD15B42DBB22E4A527993424FD05A
S214402F9003222D4B1A702D4B98472E4B1B68072B40
S214402FA030D19DF80F30FC2B2CD1254B1B685B4253
S214402FB0DBB2244A527993421ED1314B1878314BBA
S214402FC09847294CA1232370062363700025A570DB
S214402FD05923E370FC2323712448254B9847064623
S214402FE04FF48071234B9847019405230293304653
S214402FF001A92A46204B984720221A4B1A700022D5
S214403000144B1A60124B1B680633124A12689342DE
S21440301013D100220F4B1A602022124B1A700CE07C
S2144030200C4B1E6814E69DF80F30FC2BEAD15EE68A
S2144030309DF80F30FC2BE5D1BFE705B0F0BD00BFD3
S214403040EC05002008060020F1050020010A40009B
S2144030501801002004060020E80500200B0600208A
S214403060080700201C010020080B002000080E4026
S214403070FD0340005101400039014000240100207A
S214403080100100206D0A40002DE9F04F87B0AE4B8E
S2144030909847AE4B98474FF4E050AD4B98470F20BB
S2144030A04FF04051AB4CA0470E204FF04051A04748
S2144030B018204FF04051A0470D204FF04051A047F8
S2144030C010204FF02051A04714204FF02051A04729
S2144030D02E204FF02051A0470B204FF04051A047E4
S2144030E00C204FF04051A0471A204FF04051A047C7
S2144030F019204FF04051A04706204FF04051A047BE
S21440310005204FF04051A04707204FF04051A047C0
S21440311008204FF04051A04704204FF02051A047D0
S2144031201B204FF02051A0471C204FF02051A047B5
S2144031301D204FF04051A0471E204FF04051A04761
S21440314003204FF04051A0472D204FF02051A0477C
S2144031502B204FF02051A0472C204FF04051A04745
S2144031602A204FF04051A0477B4D15202946A047C6
S21440317013202946A04716202946A047172029464F
S214403180A04724202946A04724202946A04724209B
S2144031902946A04724202946A04720204FF04051EA
S2144031A0A04721204FF04051A04711204FF04051FA
S2144031B0A04712204FF04051A0470920674CA04737
S2144031C00820A0470C20A0470B20A04764484FF09B
S2144031D000610C220023634CA047634B03934FF4DB
S2144031E0E13304934FF40068CDF814805F4C2046DA
S2144031F003A95F4B9847204601215E4EB0475E4D7F
S2144032004FF4007BC5F800B020465C4B98472046FC
S2144032105B4B98472046DFF880A1D0472046594B65
S214403220984740F20111DFF87491C84720460121C3
S214403230B047C5F800B0DFF868B101248BF800400D
S214403240BFF35F8F62B650484FF000614FF4C062E4
S2144032500023444FB847444B00934FF496430193A2
S214403260CDF80880DFF83C8140466946404B984799
S21440327040462146B0474FF480772F6040463F4B4C
S214403280984740463E4B98474046D04740463D4B81
S214403290984740F20111C84740462146B0472F6044
S2144032A08BF80040BFF35F8F62B60022374B1A6040
S2144032B01520374B984718B9344A1368234413608F
S2144032C01320334B984718B9304A136802331360BB
S2144032D016202F4B984718B92C4A136804331360AE
S2144032E017202B4B984718B9284A136808331360A1
S2144032F0264A136843F0800313600022254B1A7059
S2144033002420234B984718B9224A13780133137068
S21440331025201F4B984718B91E4A1378023313705E
S21440332027201B4B984718B91A4A13780433137052
S2144033302620174B9847002840F07184154A13788A
S2144033400833137000F06BBC5D0140001507400069
S2144033502D014000F1054000010000283D034000DB
S21440336000100E40090540000090D00300080E40B3
S21440337091034000E103400000E100E0C903400043
S214403380D1034000FD034000000E0E400C0100201B
S214403390A5054000E1050020D9034000510140004A
S2144033A0F000002000060E4043F8042F00F8012FDE
S2144033B041F8042FA342F7D1644C2078644B9847D9
S2144033C02278644B5A70644E644C654D41F2DC1072
S2144033D0B04723684BB92B6823B10122614B1A7062
S2144033E0614B984700232B6001E0013B23605F4B15
S2144033F01B681BB900225E4B1A6002E0013B5B4A29
S21440340013605C4BD3F80431FF2B10D14FF4AF72EE
S214403410594B1A600122594B1A60AA22554BC3F8E1
S21440342004213C2056490022564B98476BE0514BAE
S214403430D3F80831FF2B0FD10122504B1A60782267
S2144034404D4B1A60AA224B4BC3F808213F204C49EB
S21440345000224C4B984756E0464BD3F80C31FF2B96
S21440346013D14FF4AF72444B1A600122434B1A609B
S214403470FF22454B1A70AA223E4BC3F80C2144202B
S2144034803F4900223F4B98473DE03A4BD3F8103136
S214403490FF2B10D14FF4AF72374B1A600122374BD7
S2144034A01A60AA22334BC3F8102146203449002222
S2144034B0344B984727E02F4BD3F81431FF2B10D1CD
S2144034C04FF4AF722C4B1A6001222C4B1A60AA2282
S2144034D0284BC3F81421762029490022294B9847C7
S2144034E011E0244BD3F81831FF2B0CD14FF4AF72B8
S2144034F0214B1A60FF22244B1A70AA221D4BC3F898
S2144035001821224B9847204B1B78FF2B15D11A4B7E
S2144035101B6893B97822184B1A60184B1B68012B0E
S21440352002D11A4B984739E00122144B1A603F20CB
S21440353013490022134B984730E00F4B1B68002B73
S21440354026DD013B0C4A136028E000BFE105002061
S2144035506D0A4000081000200100002024010020D1
S21440356004060020F1050020010A4000FC0000206F
S2144035700006002008070020F40500201401002063
S214403580F8050020ED08400004010020B109400085
S214403590002B03DA4FF49672904B1A60904B9B6E5A
S2144035A0FF2B05D1AA228E4B9A660B208D4B98474F
S2144035B08B4B9B6E2BB9AA22894B9A660B208A4B63
S2144035C09847874BDB6EFF2B05D1AA22844BDA66E1
S2144035D00C20844B9847824BDB6E2BB9AA22804B3B
S2144035E0DA660C20804B98477D4B1B6FFF2B05D12E
S2144035F0AA227B4B1A671A207A4B9847784B1B6F48
S2144036002BB9AA22764B1A671A20774B9847744BE9
S2144036105B6FFF2B05D1AA22714B5A671920714B5D
S21440362098476F4B5B6F2BB9AA226D4B5A67192090
S2144036306D4B98476A4B1B6CFF2B03D0684B9B6FB8
S214403640FF2B06D1664BAA221A649A671820654B50
S2144036509847634B1B6C13B1614B9B6F33B9604B00
S214403660AA221A649A6718205F4B98475C4B5B6C9B
S214403670FF2B03D05A4BDB6FFF2B06D1584BAA22A9
S2144036805A64DA670D20574B9847554B5B6C13B11D
S214403690534BDB6F33B9524BAA225A64DA670D207C
S2144036A0514B98474E4BD3F88030FF2B06D1AA2279
S2144036B04B4BC3F880200E204A4B9847484BD3F8D4
S2144036C0803033B9AA22464BC3F880200E20464BA2
S2144036D09847434B9B6CFF2B05D1AA22404B9A64DC
S2144036E00620404B98473E4B9B6C2BB9AA223C4B3E
S2144036F09A6406203C4B9847394BDB6CFF2B05D130
S214403700AA22374BDA640520364B9847344BDB6C9D
S2144037102BB9AA22324BDA640520334B9847304BFC
S2144037201B6DFF2B05D1AA222D4B1A6507202D4B6A
S21440373098472B4B1B6D2BB9AA22294B1A6507209D
S214403740294B9847264B5B6DFF2B05D1AA22244B6D
S2144037505A650820234B9847214B5B6D2BB9AA220C
S2144037601F4B5A650820204B98471D4BD3F8C03056
S214403770FF2B04D01A4BD3F8A830FF2B08D1184B98
S214403780AA22C3F8C020C3F8A8201D20154B98478E
S214403790134BD3F8C0301BB1114BD3F8A83043B904
S2144037A00F4BAA22C3F8C020C3F8A8201D200E4BFA
S2144037B098470B4BD3F8C430FF2B04D0084BD3F8B4
S2144037C0AC30FF2B12D1064BAA22C3F8C420C3F854
S2144037D0AC201E20034B984708E000BFF4050020AD
S2144037E008070020C1054000D9054000944BD3F897
S2144037F0C4301BB1924BD3F8AC3043B9904BAA229D
S214403800C3F8C420C3F8AC201E208E4B98478C4B80
S214403810D3F8C830FF2B04D0894BD3F8B030FF2BF9
S21440382008D1874BAA22C3F8C820C3F8B02003208B
S214403830854B9847824BD3F8C8301BB1804BD3F8A2
S214403840B03043B97E4BAA22C3F8C820C3F8B02094
S21440385003207C4B98477A4BD3F89C30FF2B06D1FD
S214403860AA22774BC3F89C202C20774B9847744B62
S214403870D3F89C3033B9AA22714BC3F89C202C2035
S214403880704B98476E4BD3F89830FF2B06D1AA2240
S2144038906B4BC3F898202A206B4B9847684BD3F85D
S2144038A0983033B9AA22664BC3F898202A20654B35
S2144038B098471820654B984720B9654B00221A74E4
S2144038C09A7703E0624BFF221A749A770D205F4B7B
S2144038D0984720B95E4B00225A74DA7703E05C4B77
S2144038E0FF225A74DA770620584B984718B90022B8
S2144038F0574B9A7402E0FF22554B9A740520534B5F
S214403900984718B90022524BDA7402E0FF22504B17
S214403910DA7407204D4B984718B900224C4B1A755D
S21440392002E0FF224A4B1A750820484B984718B9C0
S2144039300022474B5A7502E0FF22454B5A750B2032
S214403940424B984718B90022414B9A7602E0FF2234
S2144039503F4B9A760C203D4B984718B900223C4B7B
S214403960DA7602E0FF223A4BDA761A20374B98474F
S21440397018B90022364B1A7702E0FF22344B1A77EA
S2144039801920324B984718B90022314B5A7702E03B
S214403990FF222F4B5A770E202C4B984720B90022F7
S2144039A02B4B83F8202003E0FF22294B83F820206E
S2144039B02A20264B984720B90022254B83F82620FC
S2144039C003E0FF22224B83F826202C201F4B9847EB
S2144039D020B900221E4B83F8272003E0FF221C4B11
S2144039E083F827201D20194B984730B9184B0022E2
S2144039F083F8302083F82A2005E0154BFF2283F811
S214403A00302083F82A201E20104B984730B9104BA0
S214403A10002283F8312083F82B2005E00C4BFF2250
S214403A2083F8312083F82B200320084B984788B929
S214403A30074B002283F8322083F82C200EE000BF8C
S214403A4008070020D9054000C1054000A5054000F4
S214403A5008100020FF22764B83F82C20754B1B68FD
S214403A60642B02DC0133734A13601020724B984774
S214403A7018B100226F4B1A601CE06E4B1B68642B1B
S214403A8018D16B4B93F88020013283F8802093F84E
S214403A908220013283F88220684B694A116C19648F
S214403AA0916F9967916C9964D16CD964116D196561
S214403AB0526D5A65634B1B68642B02DC0133614AC6
S214403AC0136014205C4B984718B100225D4B1A6077
S214403AD00EE05C4B1B68642B0AD1554B93F8812053
S214403AE0013283F8812093F88320013283F88320C3
S214403AF02B20514B984738B900224D4B83F88420F1
S214403B002020514B984706E0FF22494B83F88420FB
S214403B1020204E4B98472D20474B984738B90022D7
S214403B20434B83F885202120474B984706E0FF22E9
S214403B303F4B83F885202120444B9847444B1B68D5
S214403B40642B02DC0133424A136004203A4B984708
S214403B5018B100223E4B1A6018E03D4B1B68642BA0
S214403B6014D1334B93F88920013283F8892093F897
S214403B708620013283F88620304B0022C3F8C020CE
S214403B80C3F8C420C3F8A820C3F8AC20314B1B6848
S214403B90642B02DC01332F4A13601B20264B9847C8
S214403BA018B100222B4B1A600EE02A4B1B68642B80
S214403BB00AD11F4B93F88A20013283F88A2093F863
S214403BC08720013283F887201C201B4B984730B94A
S214403BD0174B002283F88B2083F8882005E0144B8F
S214403BE0FF2283F88B2083F888202E20124B98479C
S214403BF050B900220E4B83F88C200E20124FB84747
S214403C000320B847FFF7E2BBFF22094B83F88C201E
S214403C100E200E4FB8470320B847FFF7D7BB0E4BD2
S214403C200E480F4903F50074AA22FFF7BDBB00BF3C
S214403C300810002008010020A505400008070020C5
S214403C40080C002020010020D9054000C105400096
S214403C50F800002000010020040700200710002084
S214403C60040C002070B50F4E0F4D761BB61018BFD3
S214403C70002405D0013455F8043B9847A642F9D1B4
S214403C800A4E0B4D00F094F8761BB61018BF002471
S214403C9006D0013455F8043B9847A642F9D170BD8A
S214403CA070BD00BFBC3D4000BC3D4000C43D400030
S214403CB0BC3D4000024B13B1024800F005B87047C7
S214403CC000000000D53C4000014600200246034666
S214403CD000F016B838B5084B084DED1AAC1018BFB2
S214403CE0ED1805D0013C55F8043D9847002CF9D115
S214403CF0BDE8384000F066B8D03D4000D43D4000B6
S214403D002DE9F047254C064625688846D5F84841B3
S214403D1092469946C4B360681F2817DC411C76B1AA
S214403D2004EB8003C3F888A0D4F88851012282406F
S214403D301543022EC4F88851C3F808911ED0831C40
S214403D406160002044F82380BDE8F087144B03B33D
S214403D504FF4C870AFF300800446D0B1D5F8483170
S214403D60002784E888003846C5F848410121C4F851
S214403D708871C4F88C71002EE1D0D1E7D4F88C312C
S214403D801A43C4F88C21DAE705F5A674C5F848410D
S214403D90C1E74FF0FF30BDE8F08700BFAC3D4000C4
S214403DA0000000001205000043000000280100202B
S214403DB0F8B500BFF8BC08BC9E467047B53C40000E
S214403DC0F5004000F8B500BFF8BC08BC9E467047FA
S208403DD0D100400099
S214403DD4BFF35F8F0138FBD1704700BF4FF440728A
S214403DE41F4B1A60A3F5C0631B6A13F0807F07D18C
S214403DF41C4A1D4B1A621A46936E13F0010FFBD0F1
S214403E041A4A194B1A621A46936E13F4803FFBD033
S214403E14154A136B23F0030343F001031363936EB5
S214403E2413F0080FFBD0124A0F4B9A621A46936E51
S214403E3413F0020FFBD011220B4B1A631A46936EF3
S214403E4413F0080FFBD01222074B1A631A46936EE0
S214403E5413F0080FFBD0074A074B1A60704700BFA1
S214403E64000A0E400908370000040E4009083701CE
S214403E74033F1F200090D003F40000200C4B9842D0
S214403E8403D800220B4B1A6070470B4B984204D859
S214403E944FF48072074B1A607047084B984294BFA1
S214403EA44FF400724FF44072024B1A60704700BFE2
S214403EB43F660301000A0E407FC3C9017FF93703FA
S214403EC40100000000093D006500000028000000D5
S214403ED465000000FEFF000065000000FF000000D3
S214403EE4FF00000001000000000100002000000068
S214403EF465000000140000000000000014040020C8
S214403F047C040020E40400200000000000000000C0
S214403F140000000000000000000000000000000058
S214403F24000000000000000000000000A83D400023
S214403F340000000000000000000000000000000038
S214403F440000000000000000000000000000000028
S214403F540000000000000000000000000000000018
S214403F640000000000000000000000000000000008
S214403F7400000000000000000000000000000000F8
S214403F8400000000000000000000000000000000E8
S214403F9400000000000000000000000000000000D8
S214403FA401000000000000000E33CDAB34126DE675
S214403FB4ECDE05000B0000000000000000000000DE
S214403FC400000000000000000000000000000000A8
S214403FD40000000000000000000000000000000098
S214403FE40000000000000000000000000000000088
S214403FF40000000000000000000000000000000078
S8044007298B
